:100000000C9462000C948A000C948A000C948A0070
:100010000C948A000C948A000C948A000C948A0038
:100020000C948A000C948A000C948A000C948A0028
:100030000C948A000C948A000C948A000C948A0018
:100040000C94F8020C948A000C9468030C944203FC
:100050000C948A000C948A000C948A000C948A00F8
:100060000C948A000C948A000000000023002600F3
:10007000290000000008000201000003040700003E
:1000800000000000000000000000250028002B00F8
:1000900000000000240027002A00040404040404D3
:1000A0000404020202020202030303030303010227
:1000B00004081020408001020408102001020408F6
:1000C0001020980811241FBECFEFD8E0DEBFCDBFAF
:1000D00022E0A6E5B1E001C01D92A330B207E1F72E
:1000E00011E0A0E0B1E0E0E1F7E102C005900D927F
:1000F000A635B107D9F710E0C2E6D0E004C02197D9
:10010000FE010E947B09C136D107C9F70E949A03FC
:100110000C94860B0C94000090E0FC01E255FF4F1C
:100120002491FC01E656FF4F8491882399F090E0DA
:10013000880F991FFC01E057FF4FA591B491FC0176
:10014000EA57FF4F859194918FB7F894EC91E22B89
:10015000EC938FBF0895833081F028F4813099F0BB
:100160008230A1F008958730A9F08830B9F084304A
:10017000D1F4809180008F7D03C0809180008F77C3
:1001800080938000089584B58F7702C084B58F7DF9
:1001900084BD08958091B0008F7703C08091B00036
:1001A0008F7D8093B0000895CF93DF93282F30E0A8
:1001B000F901EE58FF4F8491F901E255FF4FD491B8
:1001C000F901E656FF4FC491CC2391F081110E94B2
:1001D000AB00EC2FF0E0EE0FFF1FE859FF4FA591A9
:1001E000B491EC91ED2381E090E021F480E002C035
:1001F00080E090E0DF91CF9108951F93CF93DF933C
:10020000282F30E0F901EE58FF4F8491F901E255B3
:10021000FF4FD491F901E656FF4FC491CC23C1F0B2
:10022000162F81110E94AB00EC2FF0E0EE0FFF1FA4
:10023000EA57FF4FA591B4919FB7F894111104C0EC
:100240008C91D095D82302C0EC91DE2BDC939FBF1C
:10025000DF91CF911F9108958E3008F08E508770F6
:10026000806480937C0080917A00806480937A001F
:1002700080917A0086FDFCCF8091780020917900F2
:1002800090E0922B08953FB7F89480915E01909191
:100290005F01A0916001B091610126B5A89B05C0E6
:1002A0002F3F19F00196A11DB11D3FBFBA2FA92FF5
:1002B000982F8827820F911DA11DB11DBC01CD0172
:1002C00042E0660F771F881F991F4A95D1F708955E
:1002D0008F929F92AF92BF92CF92DF92EF92FF9256
:1002E0006B017C010E9443014B015C01C114D104EC
:1002F000E104F104F1F00E944301DC01CB01881913
:100300009909AA09BB09883E9340A105B10570F37C
:1003100021E0C21AD108E108F10888EE880E83E0D6
:10032000981EA11CB11CC114D104E104F10419F7F9
:10033000DDCFFF90EF90DF90CF90BF90AF909F9078
:100340008F900895CF92DF92EF92FF920F931F93B9
:10035000CF93DF936C017A018B01C0E0D0E0CE1522
:10036000DF0581F0D8016D918D01D601ED91FC91F1
:100370000190F081E02DC6010995892B11F021969D
:10038000EECF7E01C701DF91CF911F910F91FF90BA
:10039000EF90DF90CF900895089580E090E0089569
:1003A000FC01538D448D252F30E0842F90E0821B7B
:1003B000930B541710F0CF96089501970895FC0100
:1003C000918D828D981761F0828DDF01A80FB11D8C
:1003D0005D968C91928D9F5F9F73928F90E00895B0
:1003E0008FEF9FEF0895FC01918D828D981731F06A
:1003F000828DE80FF11D858D90E008958FEF9FEFBE
:100400000895FC01918D228D892F90E0805C9F4F93
:10041000821B91098F739927089582E691E00E94CB
:10042000010221E0892B09F420E0822F0895FC01CC
:10043000848DDF01A80FB11DA35ABF4F2C91848D6D
:1004400090E001968F739927848FA689B7892C93A2
:10045000A089B1898C91837080648C93938D848DF5
:10046000981306C00288F389E02D80818F7D8083F8
:100470000895EF92FF920F931F93CF93DF93EC01B8
:1004800081E0888F9B8D8C8D981305C0E889F98950
:10049000808185FD26C0F62E0B8D10E00F5F1F4F6B
:1004A0000F731127E02E8C8DE8120CC00FB607FCDD
:1004B000FACFE889F989808185FFF5CFCE010E94C6
:1004C0001702F1CF8B8DFE01E80FF11DE35AFF4FAC
:1004D000F0829FB7F8940B8FEA89FB898081806254
:1004E0000AC09FB7F894EE89FF896083E889F9898B
:1004F00080818370806480839FBF81E090E0DF9182
:10050000CF911F910F91FF90EF900895682F82E691
:1005100091E00C943902CF93DF93EC01888D88230E
:10052000C9F0EA89FB89808185FD05C0A889B98960
:100530008C9186FD0FC00FB607FCF5CF808185FF3B
:10054000F2CFA889B9898C9185FFEDCFCE010E94A9
:100550001702E7CFDF91CF91089580E090E0892BDB
:1005600029F00E940D0281110C94000008956CE2A4
:1005700071E080E090E00C946801009769F0FC0164
:1005800001900020E9F73197AF01481B590BBC01DE
:1005900082E691E00C94A20180E090E008950E9430
:1005A000680B0F931F93CF93DF93EC0188819981A0
:1005B000009729F02A813B812617370788F48B01A1
:1005C0006F5F7F4F0E94A20A009761F09983888332
:1005D0001B830A832C813D81232B11F4FC011082A3
:1005E00081E001C080E0DF91CF911F910F910895CC
:1005F0001F920F920FB60F9211242F933F938F9358
:100600009F93AF93BF9380915A0190915B01A0910A
:100610005C01B0915D013091590123E0230F2D372A
:1006200020F40196A11DB11D05C026E8230F0296F6
:10063000A11DB11D2093590180935A0190935B0134
:10064000A0935C01B0935D0180915E0190915F0188
:10065000A0916001B09161010196A11DB11D80932F
:100660005E0190935F01A0936001B0936101BF911F
:10067000AF919F918F913F912F910F900FBE0F904F
:100680001F9018951F920F920FB60F9211242F935F
:100690003F934F935F936F937F938F939F93AF930A
:1006A000BF93EF93FF9382E691E00E941702FF91C0
:1006B000EF91BF91AF919F918F917F916F915F91DA
:1006C0004F913F912F910F900FBE0F901F90189553
:1006D0001F920F920FB60F9211242F938F939F9317
:1006E000EF93FF93E0917201F09173018081E091AB
:1006F0007801F091790182FD12C0908180917B0197
:100700008F5F8F7320917C01821751F0E0917B0104
:10071000F0E0EE59FE4F958F80937B0101C0808100
:10072000FF91EF919F918F912F910F900FBE0F909E
:100730001F901895CF93DF93CDB7DEB72B970FB6E9
:10074000F894DEBF0FBECDBF789484B5826084BDBF
:1007500084B5816084BD85B5826085BD85B58160C5
:1007600085BD80916E00816080936E001092810043
:1007700080918100826080938100809181008160FE
:1007800080938100809180008160809380008091BF
:10079000B10084608093B1008091B000816080934B
:1007A000B00080917A00846080937A0080917A0012
:1007B000826080937A0080917A00816080937A00D1
:1007C00080917A00806880937A001092C100E09155
:1007D0007201F091730182E08083E0917201F091E7
:1007E00073011082E0916E01F0916F011082E0912F
:1007F0007001F091710180E1808310927A01E091A3
:100800007601F091770186E08083E0917401F091A8
:100810007501808180618083E0917401F0917501A0
:10082000808188608083E0917401F09175018081FE
:1008300080688083E0917401F091750180818F7DE3
:1008400080838EE00E948C008FE00E948C0080E10B
:100850000E948C0083E00E948C0085E00E948C0046
:1008600082E00E948C0084E00E948C0086E00E945E
:100870008C0081E10E948C0088E00E948C0087E05F
:100880000E948C0061E082E00E94FD0061E084E053
:100890000E94FD0061E086E00E94FD0061E081E1D0
:1008A0000E94FD0061E088E00E94FD0061E087E0B9
:1008B0000E94FD0061E085E00E94FD0080E290E082
:1008C0000E948109FC019093570180935601109278
:1008D00058012CED35E03183208333832283358327
:1008E000248388EE93E0978386839187808793871C
:1008F00082879587848797878687918B808B938B58
:10090000828B958B848B978B868B918F808F338F87
:10091000228F358F248F378F268F88E191E00E94B8
:10092000BD028AE391E00E94BD028BEC882E87E035
:10093000982E212C3324339428EEC22E23E0D22E7D
:1009400044244A9433E0532E612C712C40EDA42EA4
:1009500047E0B42E1A8219821C821B821E821D82DD
:1009600060E070E0CE0101960E94D10229813A81B7
:1009700081110DC02115310519F0C9010E94190A14
:100980001A8219821E821D821C821B8207C01E824F
:100990001D826CE371E0C9010E947F0B82E691E049
:1009A0000E94010205970CF444C082E691E00E9487
:1009B000DF01833209F03DC082E691E00E94DF0151
:1009C0000D811E818A30E1F08F8318860F5F1F4FE3
:1009D000B801CE0101960E94D102882369F02981D5
:1009E0003A818D819E81BE01695F7F4F820F931F87
:1009F0000E947F0B1E830D83C4010197F1F7DCCFAA
:100A0000012BB9F009811A816DE371E0C8010E94E0
:100A1000760B892B81F063E471E0C8010E94760BAC
:100A2000892B59F067E471E0C8010E94760B892B8D
:100A300031F010E005C01AE003C01BE001C01CE06B
:100A400089819A810E94190A112309F497C11B30E8
:100A500089F01C30D1F01A3009F090C18BE491E09C
:100A60000E94BD0261E08DE00E94FD0081E0809364
:100A7000580184C160E08DE00E94FD0081E591E0B5
:100A80000E94BD021092580179C1809158018823BB
:100A900009F474C1E0905601F090570186E190E0AE
:100AA0000E9481098C01F70130812181832F922FCF
:100AB000B1010E940B09F8018083832F922F97FFC9
:100AC00002C081509F4FF8019183F7013281238149
:100AD000832F922FB1010E940B09F8018283832F8B
:100AE000922F97FF02C081509F4FF8019383F70127
:100AF00034812581832F922FB1010E940B09F801C7
:100B00008483832F922F97FF02C081509F4FF8015B
:100B10009583F70136812781832F922FB1010E949F
:100B20000B09F8018683832F922F97FF02C0815013
:100B30009F4FF8019783F70180859185803D97400D
:100B400039F488ECF8018087F701D186C08603C0AC
:100B500084E6F8018087F70182859385803D974080
:100B600039F488ECF8018187F701D386C28603C087
:100B700084E6F8018187F70184859585803D97405B
:100B800039F488ECF8018287F701D586C48603C062
:100B900084E6F8018287F70186859785803D974036
:100BA00039F488ECF8018387F701D786C68603C03D
:100BB00084E6F8018387F70180899189803D974019
:100BC00039F488ECF8018487F701D18AC08A03C020
:100BD00084E6F8018487F70182899389803D9740F4
:100BE00039F488ECF8018587F701D38AC28A03C0FB
:100BF00084E6F8018587F70184899589803D9740CF
:100C000039F488ECF8018687F701D58AC48A03C0D5
:100C100084E6F8018687F701868997896FEF70E08F
:100C20000E940B09F8018787608BF701808D918DF9
:100C30006FEF70E00E940B09F801818B628BF70166
:100C4000828D938D803DF7E09F0711F488EC0AC0F8
:100C5000883EF3E09F0711F484E604C08C3D954084
:100C600019F486E9F801838BF701848D958D803D19
:100C7000F7E09F0711F488EC0AC0883EF3E09F0775
:100C800011F484E604C08C3D954019F486E9F8011E
:100C9000848BF701868D978D803DF7E09F0711F4D7
:100CA00088EC0AC0883EF3E09F0711F484E604C094
:100CB0008C3D954019F486E9F801858BF701C70151
:100CC0000696228D338D2C3D354021F02CED35E0FC
:100CD000338F228F32968E179F0799F783E290E029
:100CE0000E948602C4010197F1F783E690E00E941A
:100CF0008602C4010197F1F78FE690E00E94860218
:100D0000C4010197F1F78EE690E00E948602C401CB
:100D10000197F1F784E790E00E948602C4010197F1
:100D2000F1F77801C80146969B878A87F8011986F2
:100D300081919985982799872A853B852E173F07AA
:100D4000B9F7F70161917F0182E691E00E943902D3
:100D5000C4010197F1F72A853B85E216F30689F76E
:100D6000698582E691E00E94390261E070E080E0EE
:100D700090E00E946801C8010E94190A8091580100
:100D8000882309F4D2C1009156011091570160E007
:100D90008EE00E94FD0060E08FE00E94FD0060E0B8
:100DA00080E10E94FD0085E10E942C0128EE33E0E5
:100DB000DC010E943E09A30192010E941F092851F3
:100DC0003C4FF801213D47E034071CF43183208378
:100DD00002C0B182A082F80180819181883E934057
:100DE0001CF4F801D182C08261E08EE00E94FD0017
:100DF00060E08FE00E94FD0060E080E10E94FD0065
:100E000085E10E942C0128EE33E0DC010E943E09BE
:100E1000A30192010E941F0928513C4F213DF7E098
:100E20003F0724F4F8013383228303C0F801B3821F
:100E3000A282F80182819381883E93401CF4F801DC
:100E4000D382C28260E08EE00E94FD0061E08FE00C
:100E50000E94FD0060E080E10E94FD0085E10E94AB
:100E60002C0128EE33E0DC010E943E09A30192012F
:100E70000E941F0928513C4F213DF7E03F0724F411
:100E8000F8013583248303C0F801B582A482F801F8
:100E900084819581883E93401CF4F801D582C482F8
:100EA00061E08EE00E94FD0061E08FE00E94FD00A5
:100EB00060E080E10E94FD0085E10E942C0128EEA7
:100EC00033E0DC010E943E09A30192010E941F0948
:100ED00028513C4F213DF7E03F0724F4F8013783C8
:100EE000268303C0F801B782A682F8018681978124
:100EF000883E93401CF4F801D782C68260E08EE001
:100F00000E94FD0060E08FE00E94FD0061E080E152
:100F10000E94FD0085E10E942C0128EE33E0DC01F7
:100F20000E943E09A30192010E941F0928513C4FD3
:100F3000213DF7E03F0724F4F801378B268B03C0EF
:100F4000F801B78AA68AF80186899789883E934076
:100F50001CF4F801D78AC68A61E08EE00E94FD0089
:100F600060E08FE00E94FD0061E080E10E94FD00F2
:100F700085E10E942C0128EE33E0DC010E943E094D
:100F8000A30192010E941F0928513C4F213DF7E027
:100F90003F0724F4F801318F208F03C0F801B18E90
:100FA000A08EF801808D918D883E93401CF4F8014D
:100FB000D18EC08E85E00E94D400892B69F481E037
:100FC00090E00E94B702F80180859185883E9340A9
:100FD00019F4F801B186A08682E00E94D400892B22
:100FE00069F481E090E00E94B702F8018285938560
:100FF000883E934019F4F801B386A28684E00E94EB
:10100000D400892B69F481E090E00E94B702F801D6
:1010100084859585883E934019F4F801B586A486A9
:1010200086E00E94D400892B69F481E090E00E9460
:10103000B702F80186859785883E934019F4F80138
:10104000B786A68681E10E94D400892B69F481E0ED
:1010500090E00E94B702F80180899189883E934010
:1010600019F4F801B18AA08A88E00E94D400892B83
:1010700069F481E090E00E94B702F80182899389C7
:10108000883E934019F4F801B38AA28A87E00E944F
:10109000D400892B69F481E090E00E94B702F80146
:1010A00084899589883E934019F4F801B58AA48A09
:1010B00084E10E942C018330910524F4F801B58E5F
:1010C000A48E2FC09C01235031092A30310520F411
:1010D000F801D58EC48E25C09C01225131092730DC
:1010E000310520F4F801B38EA28E1BC09C012C5157
:1010F00031092730310520F4F801D38EC28E11C09A
:101100009C01285331092A30310520F4F801B78EAB
:10111000A68E07C0865591090A9738F4F801D78E34
:10112000C68E82E090E00E94B7020E94AD0212CC0F
:10113000E2E6F1E01382128288EE93E0A0E0B0E0F4
:1011400084839583A683B7838AE091E0918380832B
:1011500085EC90E09587848784EC90E0978786877C
:1011600080EC90E0918B808B81EC90E0938B828B74
:1011700082EC90E0958B848B86EC90E0978B868B4D
:10118000118E128E138E148E08952F923F924F92CD
:101190005F926F927F928F929F92AF92BF92CF9207
:1011A000DF92EF92FF920F931F93CF93DF93CDB710
:1011B000DEB7CA1BDB0B0FB6F894DEBF0FBECDBF88
:1011C00009942A88398848885F846E847D848C8459
:1011D0009B84AA84B984C884DF80EE80FD800C8162
:1011E0001B81AA81B981CE0FD11D0FB6F894DEBF45
:1011F0000FBECDBFED010895A29FB001B39FC00106
:10120000A39F700D811D1124911DB29F700D811D32
:101210001124911D089597FB072E16F4009407D012
:1012200077FD09D00E94450907FC05D03EF4909552
:1012300081959F4F0895709561957F4F0895052E74
:1012400097FB1EF400940E94360957FD07D00E94B8
:10125000590907FC03D04EF40C943609509540957B
:10126000309521953F4F4F4F5F4F08959095809552
:10127000709561957F4F8F4F9F4F08950E94FC0896
:10128000B7FF0895821B930B0895AA1BBB1B51E166
:1012900007C0AA1FBB1FA617B70710F0A61BB70BE6
:1012A000881F991F5A95A9F780959095BC01CD018B
:1012B0000895A1E21A2EAA1BBB1BFD010DC0AA1F97
:1012C000BB1FEE1FFF1FA217B307E407F50720F0AF
:1012D000A21BB30BE40BF50B661F771F881F991F2A
:1012E0001A9469F760957095809590959B01AC0173
:1012F000BD01CF010895EE0FFF1F0590F491E02D81
:1013000009940F931F93CF93DF938230910510F4CC
:1013100082E090E0E0910102F091020220E030E0F2
:10132000A0E0B0E0309719F1408151810281138132
:1013300048175907C8F08417950769F4109731F0DA
:1013400012960C93129713961C9327C000930102D8
:101350001093020222C02115310519F042175307DC
:1013600018F49A01BD01EF01DF01F801DBCF21156F
:101370003105F9F0281B390B2430310580F48A81BE
:101380009B816115710521F0FB019383828304C069
:101390009093020280930102FE01329644C0FE0146
:1013A000E20FF31F819391932250310939832883EF
:1013B0003AC02091FF0130910002232B41F420918B
:1013C000020130910301309300022093FF0120912C
:1013D0000001309101012115310541F42DB73EB7CF
:1013E0004091040150910501241B350BE091FF0150
:1013F000F0910002E217F307A0F42E1B3F0B281711
:10140000390778F0AC014E5F5F4F2417350748F07D
:101410004E0F5F1F509300024093FF018193919301
:1014200002C0E0E0F0E0CF01DF91CF911F910F917A
:101430000895CF93DF93009709F481C0FC013297A0
:1014400013821282A0910102B0910202109781F4DE
:1014500020813181820F931F2091FF013091000282
:101460002817390751F5F0930002E093FF0167C098
:10147000ED0120E030E0CE17DF0740F44A815B81C8
:101480009E0141155105F1F0EA01F5CFD383C283E6
:1014900040815181840F951FC817D90759F488815D
:1014A0009981840F951F0296918380838A819B8105
:1014B000938382832115310529F4F0930202E0938E
:1014C00001023DC0E901FB83EA8349915991C40FB0
:1014D000D51FEC17FD0761F480819181840F951F62
:1014E0000296E90199838883828193819B838A8311
:1014F000E0E0F0E012968D919C911397009719F01F
:10150000FD01DC01F7CF8D919C9111979D012E5F1C
:101510003F4F820F931F2091FF0130910002281747
:10152000390769F4309729F41092020210920102EF
:1015300002C013821282B0930002A093FF01DF91D8
:10154000CF910895A0E0B0E0E8EAFAE00C94C90871
:10155000EC01009721F4CB010E948109B4C0FC0189
:10156000E60FF71F9C0122503109E217F30708F438
:10157000A8C0D9010D911C91119706171707B0F05B
:101580000530110508F49BC0C8010497861797071A
:1015900008F495C002501109061B170B0193119313
:1015A0006D937C93CF010E94190A89C05B01A01A38
:1015B000B10A4C01800E911EA0910102B09102026D
:1015C000612C712CE12CF12C109709F446C08D91FF
:1015D0009C911197A815B905B1F56C0142E0C40EB4
:1015E000D11CCA14DB0478F14C018A189B086401F1
:1015F00042E0C40ED11C1296BC9012971396AC9187
:10160000B5E0CB16D10440F0B282A38391828082F0
:10161000D9016D937C9309C00E5F1F4F800F911FFE
:10162000F90191838083EB2DFA2FE114F10431F05D
:10163000D7011396FC93EE93129741C0F0930202E8
:10164000E09301023CC06816790608F43C017D0174
:1016500012960D90BC91A02DB7CF8091FF01909173
:10166000000288169906E1F466167706C8F48091A0
:10167000000190910101009741F48DB79EB7409110
:10168000040150910501841B950BE817F907C8F474
:10169000F0930002E093FF01F901718360830FC0B2
:1016A000CB010E9481097C01009759F0A801BE017D
:1016B0000E946D0BCE010E94190AC70104C0CE0121
:1016C00002C080E090E0CDB7DEB7EEE00C94E50814
:1016D00081E090E0F8940C94860BFB01DC0102C0E1
:1016E00001900D9241505040D8F70895FB01DC0164
:1016F0008D91019080190110D9F3990B0895FB0188
:10170000DC0101900D920020E1F70895F894FFCFDD
:10171000000003028000000000003902A201D00195
:101720008B020102DF01F30146696E69736865642B
:1017300020746F20696E697469616C697A652043F1
:101740006F6E74726F6C6C6572000D0A0068656C68
:101750006C6F00627965006765740048454C4C4FBA
:06176000004259450000A3
:00000001FF
