:100000000C945E000C9486000C9486000C94860080
:100010000C9486000C9486000C9486000C94860048
:100020000C9486000C9486000C9486000C94860038
:100030000C9486000C9486000C9486000C94860028
:100040000C940F070C9486000C94DD060C94B706F4
:100050000C9486000C9486000C9486000C94860008
:100060000C9486000C9486000000000024002700F9
:100070002A0000000000250028002B0004040404CE
:100080000404040402020202020203030303030342
:10009000010204081020408001020408102001021F
:1000A00004081020000000080002010000030407FB
:1000B0000000000000000000C9078C0911241FBEC9
:1000C000CFEFD8E0DEBFCDBF22E0A4E8B1E001C0B1
:1000D0001D92A034B207E1F711E0A0E0B1E0E4E046
:1000E000FDE102C005900D92A438B107D9F710E0E8
:1000F000CDE5D0E004C02197FE010E944B0CCC3529
:10010000D107C9F70E94FB070C94750E0C940000F0
:10011000FC01248135816217730720F4808191816D
:10012000009729F41092930183E991E00895860FD6
:10013000971F0895CF92DF92EF92FF920F931F9334
:10014000CF93DF936C017A018B01C0E0D0E0CE1534
:10015000DF0589F0D8016D918D01D601ED91FC91FB
:100160000190F081E02DC6010995892B11F47E01E3
:1001700002C02196ECCFC701DF91CF911F910F9163
:10018000FF90EF90DF90CF900895FC01918D828DCC
:10019000981761F0828DDF01A80FB11D5D968C91DB
:1001A000928D9F5F9F73928F90E008958FEF9FEFE6
:1001B0000895FC01918D828D981731F0828DE80FA2
:1001C000F11D858D90E008958FEF9FEF0895FC015C
:1001D000918D228D892F90E0805C9F4F821B910929
:1001E0008F739927089589E991E00E94E70021E043
:1001F000892B09F420E0822F0895FC01848DDF0112
:10020000A80FB11DA35ABF4F2C91848D90E0019689
:100210008F739927848FA689B7892C93A089B18978
:100220008C9180648C93938D848D981306C0028882
:10023000F389E02D80818F7D80830895EF92FF9276
:100240000F931F93CF93DF93EC0181E0888F9B8DF9
:100250008C8D981305C0E889F989808185FD24C0BB
:10026000F62E0B8D10E00F5F1F4F0F731127E02E3E
:100270008C8DE8120CC00FB607FCFACFE889F9891B
:10028000808185FFF5CFCE010E94FD00F1CF8B8DDF
:10029000FE01E80FF11DE35AFF4FF0820B8FEA8950
:1002A000FB898081806207C0EE89FF896083E889CD
:1002B000F98980818064808381E090E0DF91CF9133
:1002C0001F910F91FF90EF900895CF93DF93EC0172
:1002D000888D8823C9F0EA89FB89808185FD05C066
:1002E000A889B9898C9186FD0FC00FB607FCF5CFA0
:1002F000808185FFF2CFA889B9898C9185FFEDCFE8
:10030000CE010E94FD00E7CFDF91CF91089590E0EC
:10031000FC01EC55FF4F3491FC01E057FF4F249155
:10032000FC01E458FF4FE491EE2309F43BC0332372
:1003300039F1333091F038F43130A9F0323001F531
:1003400084B58F7D12C0373091F03830A1F0343051
:10035000B9F4809180008F7D03C0809180008F77F9
:10036000809380000DC084B58F7784BD09C08091D3
:10037000B0008F7703C08091B0008F7D8093B00074
:10038000F0E0EE0FFF1FEE58FF4FA591B4918FB72D
:10039000F894EC91611103C020952E2301C02E2BFF
:1003A0002C938FBF0895482F50E0FA01E057FF4F7C
:1003B0009491FA01E458FF4F2491222399F030E000
:1003C000220F331FF901E859FF4FA591B491F901AC
:1003D000EE58FF4F259134912FB7F894EC91E92B0B
:1003E000EC932FBF6115710511F460E004C06F3FFD
:1003F000710519F461E00C948701FA01EC55FF4F87
:10040000E491E330F9F048F4E130B9F0E230A1F5DD
:1004100084B5806284BD68BD0895E730E9F0E830B6
:1004200019F1E43049F5809180008062809380006A
:1004300070938B0060938A00089584B5806884BDB2
:1004400067BD0895809180008068809380007093DC
:1004500089006093880008958091B000806880933F
:10046000B0006093B30008958091B00080628093E3
:10047000B0006093B4000895603871050CF0BACFF5
:10048000B4CF3FB7F89480918F0190919001A091E3
:100490009101B091920126B5A89B05C02F3F19F09C
:1004A0000196A11DB11D3FBFBA2FA92F982F8827F4
:1004B000820F911DA11DB11DBC01CD0142E0660F4F
:1004C000771F881F991F4A95D1F708958F929F92A1
:1004D000AF92BF92CF92DF92EF92FF926B017C01BD
:1004E0000E9441024B015C01C114D104E104F104FA
:1004F000F1F00E944102DC01CB0188199909AA0997
:10050000BB09883E9340A105B10570F321E0C21AF2
:10051000D108E108F10888EE880E83E0981EA11C3E
:10052000B11CC114D104E104F10419F7DDCFFF902F
:10053000EF90DF90CF90BF90AF909F908F900895F5
:10054000009769F0FC0101900020E9F73197AF01B5
:10055000481B590BBC0189E991E00C949A0080E09A
:1005600090E008958F929F92AF92BF920F931F9346
:10057000CF93DF93CDB7DEB7A1970FB6F894DEBF68
:100580000FBECDBF19A2423008F44AE08E010F5DC4
:100590001F4F842E912CA12CB12CA50194010E94F7
:1005A000290CE62FB901CA0101501109EA3014F4EF
:1005B000E05D01C0E95CD801EC93232B242B252BB3
:1005C00061F7C8010E94A002A1960FB6F894DEBFA1
:1005D0000FBECDBFDF91CF911F910F91BF90AF9014
:1005E0009F908F900895FC01808191810C94E60C7E
:1005F0000E94480EFC0124813581232B31F421E037
:1006000061157105A1F0FB0108C0FC018081918199
:100610006115710531F421E0FC018081882339F0F6
:1006200005C00E94560E21E0892B09F020E0822FA0
:1006300008950F931F93CF93DF93EC0188819981E5
:10064000009729F02A813B812617370788F48B0110
:100650006F5F7F4F0E947E0D009761F099838883C2
:100660001B830A832C813D81232B11F4FC01108212
:1006700081E001C080E0DF91CF911F910F9108953B
:10068000EF92FF920F931F93CF93DF9300D0CDB7DC
:10069000DEB78C0169831A82FC01E480F580FFEFEC
:1006A000EF1AFF0AB7010E941903882381F0F801AD
:1006B0002081318184819581BE016F5F7F4F820FE0
:1006C000931F0E945F0EF801F582E48281E00F9093
:1006D0000F90DF91CF911F910F91FF90EF900895B0
:1006E000EF92FF920F931F93CF93DF93EC017B0167
:1006F0008A01BA010E9419032881398181110DC034
:100700002115310519F0C9010E94E60C19821882E1
:100710001D821C821B821A8206C01D830C83B701B6
:10072000C9010E945F0ECE01DF91CF911F910F9101
:10073000FF90EF900895FC011182108213821282C3
:10074000158214826115710551F0FB0101900020A2
:10075000E9F73197AF01461B570B0C9470030895CE
:10076000CF92DF92EF92FF920F931F93CF93DF937D
:10077000CDB7DEB7CE54D1090FB6F894DEBF0FBEA9
:10078000CDBF89E991E00E94E700892B09F4D9C225
:1007900089E991E00E94C5008A3009F03FC100E07C
:1007A00010E0E12CF12C40913A0250913B020417E9
:1007B000150778F4B80186E392E00E948800FC01F6
:1007C00080818E3519F4FFEFEF1AFF0A0F5F1F4F7C
:1007D000EACF4115510509F418C1609136027091B4
:1007E00037026115710509F410C1FB018081833264
:1007F00009F00BC1CA0101978417950708F005C1DC
:10080000E80FF91F8081843209F0FFC0F3E0EF1692
:10081000F10409F0FAC01EAE1DAE21961FAE1EAE49
:10082000219723961FAE1EAE2397CE01CD960E9430
:10083000700318AE1FAA1AAE19AE1CAE1BAE6DAD7A
:100840007EAD6115710541F023964EAD5FAD2397E6
:10085000CE01C7960E94700362E871E0CE01C19696
:100860000E949B0362E871E0CE018B960E949B037D
:1008700062E871E0CE0185960E949B0362E871E018
:10088000CE014F960E949B03E12CF12CB701CE01C3
:10089000C7960E948800FC01808187010F5F1F4F6F
:1008A000B7018E3559F0CE01C7960E948800FC0131
:1008B0006081CE01C1960E94400308C0CE01C79658
:1008C0000E948800FC0180818E3511F07801DECF16
:1008D0007801B701CE01C7960E948800FC01808193
:1008E00087010F5F1F4F8E3561F0B701CE01C796AC
:1008F0000E948800FC016081CE018B960E9440031B
:10090000E7CF7801B801CE01C7960E948800FC01AC
:1009100080810F5F1F4F8E3561F0B701CE01C79602
:100920000E948800FC016081CE0185960E944003F0
:10093000E8CFB801CE01C7960E948800FC018081F3
:10094000843271F0B801CE01C7960E948800FC0184
:100950006081CE014F960E9440030F5F1F4FE9CF89
:100960006AE171E0CE01C1960E94FA028823A9F1E2
:100970006FE171E0CE0185960E94FA02882369F149
:1009800064E571E0CE014F960E94FA02882309F4D3
:100990004BC060E070E085E00E94D30160E070E051
:1009A00086E00E94D30160E070E083E00E94D30102
:1009B00060E070E08AE00E94D30160E070E089E0CE
:1009C0000E94D30160E070E08BE00E94D30165E0FB
:1009D00070E080E090E00E946602CE014F960E9497
:1009E000F302CE0185960E94F302CE018B960E94FF
:1009F000F302CE01C1960E94F302CE01C7960E9477
:100A0000F302CE01CD960E94F30240E050E062E88E
:100A100071E086E392E00E947003B3CE682F86E314
:100A200092E00E944003ADCE69E271E0CE014F96A4
:100A30000E94FA0281110BC064E371E0CE014F966F
:100A40000E94FA02882311F181E08093940160E012
:100A500070E085E00E94D30160E070E086E00E94D3
:100A6000D30160E070E083E00E94D30160E070E0B9
:100A70008AE00E94D30160E070E089E00E94D30127
:100A800060E070E08BE00E94D301A7CF69E371E0E2
:100A9000CE014F960E94FA02882371F106E011E020
:100AA000F80180810E5F1F4F60E070E00E94D3016B
:100AB00060E070E085E00E94D30160E070E086E0D5
:100AC0000E94D30160E070E083E00E94D30160E007
:100AD00070E08AE00E94D30160E070E089E00E944B
:100AE000D30160E070E08BE00E94D301F1E00A30B6
:100AF0001F0709F472CFD4CF6DE371E0CE014F969A
:100B00000E94FA02811169CF66E471E0CE014F962E
:100B10000E94FA02811161CF62E871E0CE0149962C
:100B20000E949B0362E871E0CE0143960E949B0302
:100B300062E871E0CE010D960E949B0362E871E0CD
:100B4000CE0107960E949B0300E010E0B801CE01A1
:100B50004F960E948800FC016081CE0149960E9458
:100B600040030F5F1F4F0330110581F785E0E82E2A
:100B7000F12CB701CE014F960E948800FC018081C4
:100B800087010F5F1F4F823569F0B701CE014F9685
:100B90000E948800FC016081CE0143960E944003C0
:100BA0007801E7CF7801B801CE014F960E94880006
:100BB000FC0180810F5F1F4F843561F0B701CE01CA
:100BC0004F960E948800FC016081CE010D960E9424
:100BD0004003E8CF8BA19CA10817190770F4B80156
:100BE000CE014F960E948800FC016081CE010796DD
:100BF0000E9440030F5F1F4FEDCFBE016D5E7F4F20
:100C0000CE0101960E947A07BE01655B7F4FCE013F
:100C100001960E945907CE0101960E94F302CE016F
:100C2000855B9F4F0E9490096C0190938501809392
:100C30008401BE01635F7F4FCE0101960E947A0757
:100C4000BE01695B7F4FCE0101960E945907CE011C
:100C500001960E94F302CE01895B9F4F0E9490098A
:100C60007C019093870180938601BE01695F7F4F6D
:100C7000CE0101960E947A07BE016D5B7F4FCE01C7
:100C800001960E945907CE0101960E94F302CE01FF
:100C90008D5B9F4F0E9490098C01909389018093F6
:100CA000880160E571E0CE0149960E94FA02811147
:100CB00011C0CE0107960E94F302CE010D960E944C
:100CC000F302CE0143960E94F302CE0149960E94A0
:100CD000F30283CE60E070E085E00E94D30160E023
:100CE00070E086E00E94D30160E070E083E00E9443
:100CF000D30160E070E08AE00E94D30160E070E020
:100D000089E00E94D30160E070E08BE00E94D30193
:100D1000B60185E00E94D301B70186E00E94D301AD
:100D2000B80183E00E94D301B8018AE00E94D30198
:100D3000B80189E00E94D301B8018BE00E94D30181
:100D4000B8CFC25BDF4F0FB6F894DEBF0FBECDBF8A
:100D5000DF91CF911F910F91FF90EF90DF90CF9097
:100D600008950E94F30081110C94B00308951F921E
:100D70000F920FB60F9211242F933F934F935F93CF
:100D80006F937F938F939F93AF93BF93EF93FF9353
:100D900089E991E00E94FD00FF91EF91BF91AF9131
:100DA0009F918F917F916F915F914F913F912F9183
:100DB0000F900FBE0F901F9018951F920F920FB6B5
:100DC0000F9211242F938F939F93EF93FF93E091B2
:100DD000A901F091AA018081E091AF01F091B001E9
:100DE00082FD12C090818091B2018F5F8F7320913C
:100DF000B301821751F0E091B201F0E0E756FE4FE7
:100E0000958F8093B20101C08081FF91EF919F91F6
:100E10008F912F910F900FBE0F901F9018951F92DA
:100E20000F920FB60F9211242F933F938F939F939E
:100E3000AF93BF9380918B0190918C01A0918D0114
:100E4000B0918E0130918A0123E0230F2D3720F4D9
:100E50000196A11DB11D05C026E8230F0296A11D14
:100E6000B11D20938A0180938B0190938C01A093F4
:100E70008D01B0938E0180918F0190919001A0918E
:100E80009101B09192010196A11DB11D80938F0136
:100E900090939001A0939101B0939201BF91AF9173
:100EA0009F918F913F912F910F900FBE0F901F90A8
:100EB00018950F931F93CF93DF93FC01C481D581C5
:100EC000209719F4FB01108210C0C330D10510F037
:100ED000C3E0D0E08B01FC0160817181AE01C801EB
:100EE0000E94660EC00FD11F1882DF91CF911F9113
:100EF0000F910895DF92EF92FF920F931F93CF937C
:100F0000DF93EC017B0162E871E00E949B03D70153
:100F100014960D911C9115970115110589F1033057
:100F2000110510F003E010E0D701ED91FC9111974D
:100F3000E00FF11FD08010826D917C9161157105D9
:100F400061F0FB0101900020E9F73197AF01461BEA
:100F5000570BCE010E9470030CC0888199810097C5
:100F600011F00E94E60C198218821D821C821B82DD
:100F70001A82F70180819181FC01E00FF11FD0827C
:100F8000CE01DF91CF911F910F91FF90EF90DF90F5
:100F90000895E9E9F1E01382128288EE93E0A0E07F
:100FA000B0E084839583A683B7838EE091E091833C
:100FB000808385EC90E09587848784EC90E0978728
:100FC000868780EC90E0918B808B81EC90E0938B16
:100FD000828B82EC90E0958B848B86EC90E0978BF3
:100FE000868B118E128E138E148E62E871E086E36A
:100FF00092E00C949B03789484B5826084BD84B5A0
:10100000816084BD85B5826085BD85B5816085BD03
:1010100080916E00816080936E00109281008091BB
:101020008100826080938100809181008160809343
:101030008100809180008160809380008091B10068
:1010400084608093B1008091B00081608093B00093
:1010500080917A00846080937A0080917A00826027
:1010600080937A0080917A00816080937A008091E9
:101070007A00806880937A001092C100E091A90103
:10108000F091AA0182E08083E091A901F091AA0188
:101090001082E091A501F091A6011082E091A701D4
:1010A000F091A80180E180831092B101E091AD013F
:1010B000F091AE0186E08083E091AB01F091AC014C
:1010C000808180618083E091AB01F091AC018081EF
:1010D00088608083E091AB01F091AC0180818068F1
:1010E0008083E091AB01F091AC0180818F7D8083A2
:1010F000C5E0D3E40AE010E0C12CD12C7601D093F6
:101100007C0080917A00806480937A0080917A00DC
:1011100086FDFCCF809178002091790090E0922BA1
:10112000C89FB001C99F700D1124072E000C880BB9
:10113000990B0E94BD0923EC34E643E351E40E947D
:101140001C0A20E030EC4FE754E40E947E0B9B0128
:10115000AC01C701B6010E94120B6B017C0101506A
:10116000110969F620E030E040E251E40E947E0B74
:1011700060939501709396018093970190939801E5
:1011800080919401882309F4C4C089E591E00E940C
:10119000A002C0909501D0909601E0909701F09048
:1011A0009801A7019601C701B6010E94240C88236B
:1011B00019F082E791E01AC046015701E894B7F8A8
:1011C0002FEF3FEF4FE75FE7C501B4010E94240C0A
:1011D00081110FC02FEF3FEF4FE75FE7C501B4016B
:1011E0000E94B60918162CF486E791E00E94A0022E
:1011F00082C02FEF3FEF4FE75FE4C701B6010E94C7
:101200001F0C18161CF48AE791E0F0CF2FEF3FEF88
:101210004FE75FECC701B6010E94B60987FDF3CF27
:1012200020E030E0A901C701B6010E94B60987FF9E
:101230000FC0E0919901F0919A010190F081E02DA9
:101240006DE289E991E00995F7FAF094F7F8F094E6
:101250002AE037ED43EA5BE3C701B6010E94120BB7
:101260004B015C010E94F00B6B017C010E94BB09E9
:101270009B01AC01C501B4010E94110B4B015C0143
:101280004AE0C701B6010E94B202E0919901F091D3
:101290009A010190F081E02D6EE289E991E00995D3
:1012A00020E030E040E251E4C501B4010E941C0A94
:1012B0004B015C010E94F00B6B01E12CF12C4AE028
:1012C000C701B6010E94B202C701B6010E94BB0964
:1012D0009B01AC01C501B4010E94110B20E030E07C
:1012E00040E251E40E941C0A0E94F00B80E090E072
:1012F0004AE00E94B2028EE791E00E94A00280E8DC
:1013000091E00E94A00264E170E080E090E00E9421
:1013100066020E94B106EECE86E392E00C94F302E0
:10132000FC0188279927E89421912032E9F329309C
:1013300010F02E30C8F32B3241F02D3239F468947E
:1013400004C00E94AE09820F911D219120532A30C2
:10135000C0F31EF4909581959F4F08957AE0979F72
:10136000902D879F802D910D112408950E94F809DA
:1013700008F481E00895E89409C097FB3EF4909545
:101380008095709561957F4F8F4F9F4F9923A9F05E
:10139000F92F96E9BB279395F695879577956795ED
:1013A000B795F111F8CFFAF4BB0F11F460FF1BC031
:1013B0006F5F7F4F8F4F9F4F16C0882311F096E9C4
:1013C00011C0772321F09EE8872F762F05C0662372
:1013D00071F096E8862F70E060E02AF09A95660F2B
:1013E000771F881FDAF7880F9695879597F90895E4
:1013F000990F0008550FAA0BE0E8FEEF1616170626
:10140000E807F907C0F012161306E407F50798F08D
:10141000621B730B840B950B39F40A2661F0232BA6
:10142000242B252B21F408950A2609F4A140A69522
:101430008FEF811D811D08950E942F0A0C94A00A30
:101440000E94920A38F00E94990A20F0952311F028
:101450000C94890A0C948F0A11240C94D40A0E94CB
:10146000B10A70F3959FC1F3950F50E0551F629F2D
:10147000F001729FBB27F00DB11D639FAA27F00DED
:10148000B11DAA1F649F6627B00DA11D661F829F14
:101490002227B00DA11D621F739FB00DA11D621FF9
:1014A000839FA00D611D221F749F3327A00D611D16
:1014B000231F849F600D211D822F762F6A2F1124F8
:1014C0009F5750409AF0F1F088234AF0EE0FFF1F2B
:1014D000BB1F661F771F881F91505040A9F79E3F82
:1014E000510580F00C94890A0C94D40A5F3FE4F310
:1014F000983ED4F3869577956795B795F795E795D8
:101500009F5FC1F7FE2B880F911D9695879597F9E0
:10151000089597F99F6780E870E060E008959FEF75
:1015200080EC089500240A9416161706180609067A
:10153000089500240A941216130614060506089549
:10154000092E0394000C11F4882352F0BB0F40F4D1
:10155000BF2B11F460FF04C06F5F7F4F8F4F9F4F11
:10156000089557FD9058440F551F59F05F3F71F093
:101570004795880F97FB991F61F09F3F79F08795FA
:101580000895121613061406551FF2CF4695F1DF83
:1015900008C0161617061806991FF1CF8695710513
:1015A000610508940895E894BB2766277727CB0147
:1015B00097F908952F923F924F925F926F927F9288
:1015C0008F929F92AF92BF92CF92DF92EF92FF9253
:1015D0000F931F93CF93DF93CDB7DEB7CA1BDB0BFF
:1015E0000FB6F894DEBF0FBECDBF09942A883988A4
:1015F00048885F846E847D848C849B84AA84B984AB
:10160000C884DF80EE80FD800C811B81AA81B981B6
:10161000CE0FD11D0FB6F894DEBF0FBECDBFED01CA
:1016200008955058BB27AA270E94290B0C94A00AA2
:101630000E94920A38F00E94990A20F039F49F3FE4
:1016400019F426F40C948F0A0EF4E095E7FB0C9441
:10165000890AE92F0E94B10A58F3BA176207730783
:101660008407950720F079F4A6F50C94D30A0EF4BC
:10167000E0950B2EBA2FA02D0B01B90190010C01A2
:10168000CA01A0011124FF27591B99F0593F50F4BA
:10169000503E68F11A16F040A22F232F342F442712
:1016A000585FF3CF469537952795A795F04053950A
:1016B000C9F77EF41F16BA0B620B730B840BBAF0DA
:1016C0009150A1F0FF0FBB1F661F771F881FC2F745
:1016D0000EC0BA0F621F731F841F48F48795779559
:1016E0006795B795F7959E3F08F0B0CF9395880F13
:1016F00008F09927EE0F9795879508950E94920B11
:101700000C94A00A0E94990A58F00E94920A40F094
:1017100029F45F3F29F00C94890A51110C94D40AE2
:101720000C948F0A0E94B10A68F39923B1F35523F0
:1017300091F3951B550BBB27AA27621773078407E4
:1017400038F09F5F5F4F220F331F441FAA1FA9F37A
:1017500035D00E2E3AF0E0E832D091505040E69568
:10176000001CCAF72BD0FE2F29D0660F771F881FC9
:10177000BB1F261737074807AB07B0E809F0BB0BBC
:10178000802DBF01FF2793585F4F3AF09E3F5105D0
:1017900078F00C94890A0C94D40A5F3FE4F3983EE5
:1017A000D4F3869577956795B795F7959F5FC9F7B9
:1017B000880F911D9695879597F90895E1E0660F3A
:1017C000771F881FBB1F621773078407BA0720F0B3
:1017D000621B730B840BBA0BEE1F88F7E09508951C
:1017E0000E94B90A88F09F5798F0B92F9927B751EE
:1017F000B0F0E1F0660F771F881F991F1AF0BA95B5
:10180000C9F714C0B13091F00E94D30AB1E0089535
:101810000C94D30A672F782F8827B85F39F0B93F27
:10182000CCF3869577956795B395D9F73EF4909567
:101830008095709561957F4F8F4F9F4F08950E94BF
:10184000F80908F48FEF08950E94F809880B990BA6
:101850000895A1E21A2EAA1BBB1BFD010DC0AA1FF1
:10186000BB1FEE1FFF1FA217B307E407F50720F009
:10187000A21BB30BE40BF50B661F771F881F991F84
:101880001A9469F760957095809590959B01AC01CD
:10189000BD01CF010895EE0FFF1F0590F491E02DDB
:1018A0000994CF93DF938230910510F482E090E0A9
:1018B000E0913E02F0913F0220E030E0C0E0D0E055
:1018C000309711F14081518148175907C0F04817EE
:1018D000590761F482819381209719F09B838A8351
:1018E0002BC090933F0280933E0226C02115310504
:1018F00019F04217530718F49A01BE01DF01EF01F6
:101900000280F381E02DDCCF2115310509F1281B80
:10191000390B2430310590F412968D919C911397D8
:101920006115710521F0FB019383828304C09093BC
:101930003F0280933E02FD01329644C0FD01E20F5A
:10194000F31F81939193225031092D933C933AC018
:1019500020913C0230913D02232B41F42091020161
:101960003091030130933D0220933C02209100010D
:10197000309101012115310541F42DB73EB7409159
:10198000040150910501241B350BE0913C02F091BC
:101990003D02E217F307A0F42E1B3F0B281739076F
:1019A00078F0AC014E5F5F4F2417350748F04E0FBB
:1019B0005F1F50933D0240933C028193919302C07C
:1019C000E0E0F0E0CF01DF91CF9108950F931F93F6
:1019D000CF93DF93009709F48CC0FC0132971382F8
:1019E000128200913E0210913F020115110581F40F
:1019F00020813181820F931F20913C0230913D0262
:101A00002817390779F5F0933D02E0933C0271C045
:101A1000D80140E050E0AE17BF0750F412962D9168
:101A20003C911397AD012115310509F1D901F3CF8F
:101A30009D01DA013383228360817181860F971FB4
:101A40008217930769F4EC0128813981260F371F2B
:101A50002E5F3F4F318320838A819B8193838283D2
:101A6000452B29F4F0933F02E0933E0242C01396C7
:101A7000FC93EE931297ED01499159919E01240F29
:101A8000351FE217F30771F480819181840F951F50
:101A9000029611969C938E938281938113969C93C8
:101AA0008E931297E0E0F0E0D80112968D919C9110
:101AB0001397009719F0F8018C01F6CF8D919C9146
:101AC00098012E5F3F4F820F931F20913C0230916F
:101AD0003D022817390769F4309729F410923F0224
:101AE00010923E0202C01382128210933D020093B4
:101AF0003C02DF91CF911F910F910895A0E0B0E0DB
:101B0000E4E8FDE00C94DE0AEC01009721F4CB013F
:101B10000E94510CB8C0FC01E60FF71F9C01225037
:101B20003109E217F30708F4ACC0D9010D911C91FB
:101B3000119706171707B0F00530110508F49FC07C
:101B4000C80104978617970708F499C00250110935
:101B5000061B170B019311936D937C93CF010E9489
:101B6000E60C8DC05B01A01AB10A4C01800E911EDB
:101B7000A0913E02B0913F0240E050E0E12CF12CF8
:101B8000109709F44AC0A815B905D1F56D907C905D
:101B90001197630182E0C80ED11CCA14DB0480F1E6
:101BA000A3014A195B096A0182E0C80ED11C129692
:101BB000BC9012971396AC91B5E0CB16D10440F0CF
:101BC000B282A38351834083D9016D937C930AC071
:101BD0000E5F1F4FC301800F911FF9019183808316
:101BE000EB2DFA2FE114F10431F0D7011396FC9399
:101BF000EE93129744C0F0933F02E0933E023FC041
:101C00008D919C9111974817590708F4AC017D01FB
:101C100012960D90BC91A02DB3CF80913C02909173
:101C20003D0288159905E1F446175707C8F48091DD
:101C3000000190910101009741F48DB79EB740914A
:101C4000040150910501841B950BE817F907C8F4AE
:101C5000F0933D02E0933C02F901718360830FC071
:101C6000CB010E94510C7C01009759F0A801BE01E4
:101C70000E944D0ECE010E94E60CC70104C0CE01A9
:101C800002C080E090E0CDB7DEB7EEE00C94FA0A37
:101C900081E090E0F8940C94750EFB01DC0102C029
:101CA00001900D9241505040D8F70895FB01DC019E
:101CB0008D91019080190110D9F3990B0895FB01C2
:101CC000DC0101900D920020E1F70895FB01DC0199
:101CD0004150504048F001900D920020C9F701C0DA
:101CE0001D9241505040E0F7089510E0CDE5D0E05E
:101CF00004C0FE010E944B0C2196CE35D107C9F7D6
:041D0000F894FFCF85
:101D040000004002800005000600000000001E01E3
:101D14009A00E700C500D900650123445253004CE2
:101D24004556315F315F5233004D4F544F525F4936
:101D34004E4954004E554C4C004F555400504F578B
:101D440045525F4F4E00504F5745525F4F46460035
:101D5400494E560053544F5000234452535E375E4D
:101D64004C4556315F315F52335E424154544552C3
:101D740059006E616E00696E66006F76660024001D
:041D84000D0A000044
:00000001FF