:100000000C945D000C9485000C9485000C94850084
:100010000C9485000C9485000C9485000C9485004C
:100020000C9485000C9485000C9485000C9485003C
:100030000C9485000C9485000C9485000C9485002C
:100040000C94E9020C9485000C94B7020C94910274
:100050000C9485000C9485000C9485000C9485000C
:100060000C9485000C9485000000000024002700FB
:100070002A0000000000250028002B0004040404CE
:100080000404040402020202020203030303030342
:10009000010204081020408001020408102001021F
:1000A00004081020000000080002010000030407FB
:1000B00000000000000000004A0511241FBECFEF21
:1000C000D8E0DEBFCDBF11E0A0E0B1E0EAE1FFE0A3
:1000D00002C005900D92AE31B107D9F721E0AEE133
:1000E000B1E001C01D92A43CB207E1F710E0CDE5FC
:1000F000D0E004C02197FE010E948007CC35D107D3
:10010000C9F70E9433030C948B070C940000CF9224
:10011000DF92EF92FF920F931F93CF93DF936C01C7
:100120007A018B01C0E0D0E0CE15DF0589F0D8015F
:100130006D918D01D601ED91FC910190F081E02D42
:10014000C6010995892B11F47E0102C02196ECCFDE
:10015000C701DF91CF911F910F91FF90EF90DF903A
:10016000CF900895089580E090E00895FC01538DAC
:10017000448D252F30E0842F90E0821B930B541781
:1001800010F0CF96089501970895FC01918D828D0E
:10019000981761F0828DDF01A80FB11D5D968C91DB
:1001A000928D9F5F9F73928F90E008958FEF9FEFE6
:1001B0000895FC01918D828D981731F0828DE80FA2
:1001C000F11D858D90E008958FEF9FEF0895FC015C
:1001D000918D228D892F90E0805C9F4F821B910929
:1001E0008F739927089587E291E00E94E70021E04C
:1001F000892B09F420E0822F0895FC01848DDF0112
:10020000A80FB11DA35ABF4F2C91848D90E0019689
:100210008F739927848FA689B7892C93A089B18978
:100220008C9180648C93938D848D981306C0028882
:10023000F389E02D80818F7D80830895EF92FF9276
:100240000F931F93CF93DF93EC0181E0888F9B8DF9
:100250008C8D981305C0E889F989808185FD24C0BB
:10026000F62E0B8D10E00F5F1F4F0F731127E02E3E
:100270008C8DE8120CC00FB607FCFACFE889F9891B
:10028000808185FFF5CFCE010E94FD00F1CF8B8DDF
:10029000FE01E80FF11DE35AFF4FF0820B8FEA8950
:1002A000FB898081806207C0EE89FF896083E889CD
:1002B000F98980818064808381E090E0DF91CF9133
:1002C0001F910F91FF90EF900895682F87E291E0C2
:1002D0000C941E01CF93DF93EC01888D8823C9F025
:1002E000EA89FB89808185FD05C0A889B9898C913F
:1002F00086FD0FC00FB607FCF5CF808185FFF2CFDA
:10030000A889B9898C9185FFEDCFCE010E94FD00AF
:10031000E7CFDF91CF91089580E090E0892B29F01D
:100320000E94F30081110C940000089590E0FC01FC
:10033000EC55FF4F3491FC01E057FF4F2491FC0135
:10034000E458FF4FE491EE2309F43BC0332339F125
:10035000333091F038F43130A9F0323001F584B502
:100360008F7D12C0373091F03830A1F03430B9F4BD
:10037000809180008F7D03C0809180008F77809373
:1003800080000DC084B58F7784BD09C08091B00016
:100390008F7703C08091B0008F7D8093B000F0E034
:1003A000EE0FFF1FEE58FF4FA591B4918FB7F89451
:1003B000EC91611103C020952E2301C02E2B2C93AC
:1003C0008FBF0895482F50E0FA01E057FF4F9491F6
:1003D000FA01E458FF4F2491222399F030E0220FD4
:1003E000331FF901E859FF4FA591B491F901EE5877
:1003F000FF4F259134912FB7F894EC91E92BEC93B2
:100400002FBF6115710511F460E004C06F3F7105E5
:1004100019F461E00C949601FA01EC55FF4FE49158
:10042000E330F9F048F4E130B9F0E230A1F584B5F9
:10043000806284BD68BD0895E730E9F0E83019F1C5
:10044000E43049F580918000806280938000709351
:100450008B0060938A00089584B5806884BD67BD71
:100460000895809180008068809380007093890057
:100470006093880008958091B00080688093B000F8
:100480006093B30008958091B00080628093B000C3
:100490006093B4000895603871050CF0BACFB4CF02
:1004A0003FB7F89480911F0190912001A091210104
:1004B000B091220126B5A89B05C02F3F19F00196E7
:1004C000A11DB11D3FBFBA2FA92F982F8827820FDA
:1004D000911DA11DB11DBC01CD0142E0660F771F2A
:1004E000881F991F4A95D1F70895CF92DF92EF9216
:1004F000FF920E9450026B017C010E945002DC01BD
:10050000CB018C199D09AE09BF09883E9340A10516
:10051000B10598F3FF90EF90DF90CF9008950E947F
:1005200086071F920F920FB60F9211242F933F93BD
:100530004F935F936F937F938F939F93AF93BF93EB
:10054000EF93FF9387E291E00E94FD00FF91EF910E
:10055000BF91AF919F918F917F916F915F914F91DB
:100560003F912F910F900FBE0F901F9018951F92E3
:100570000F920FB60F9211242F938F939F93EF93A7
:10058000FF93E0913701F09138018081E0913D01C6
:10059000F0913E0182FD12C09081809140018F5FF9
:1005A0008F7320914101821751F0E0914001F0E0FA
:1005B000E95DFE4F958F8093400101C08081FF91DE
:1005C000EF919F918F912F910F900FBE0F901F90E1
:1005D00018951F920F920FB60F9211242F933F93ED
:1005E0008F939F93AF93BF938091230190912401A8
:1005F000A0912501B091260130911E0123E0230F27
:100600002D3720F40196A11DB11D05C026E8230F4A
:100610000296A11DB11D20931E018093230190938A
:100620002401A0932501B093260180911F01909190
:100630002001A0912101B09122010196A11DB11DBF
:1006400080931F0190932001A0932101B093220178
:10065000BF91AF919F918F913F912F910F900FBEBE
:100660000F901F901895CF93DF931F92CDB7DEB7F1
:10067000789484B5826084BD84B5816084BD85B57D
:10068000826085BD85B5816085BD80916E00816089
:1006900080936E001092810080918100826080932F
:1006A0008100809181008160809381008091800031
:1006B0008160809380008091B10084608093B1005C
:1006C0008091B00081608093B00080917A00846056
:1006D00080937A0080917A00826080937A00809182
:1006E0007A00816080937A0080917A00806880939C
:1006F0007A001092C100E0913701F091380182E058
:100700008083E0913701F09138011082E09133014C
:10071000F09134011082E0913501F091360180E1D1
:10072000808310923F01E0913B01F0913C0186E013
:100730008083E0913901F0913A018081806180836A
:10074000E0913901F0913A01808188608083E091E5
:100750003901F0913A01808180688083E09139010C
:10076000F0913A0180818F7D80830BEC17E08FB789
:10077000F8944091230150912401609125017091DA
:1007800026018FBF87E291E00E94E70006970CF4F4
:1007900073C16DB67EB687E291E00E94C5000E94EB
:1007A000750287E291E00E94C5000E94750287E20F
:1007B00091E00E94C5000E94750287E291E00E94CC
:1007C000C5000E94750287E291E00E94C5000E9468
:1007D000750287E291E00E94C500282E0E947502F2
:1007E00087E291E00E94C5006C010E94750287E2D9
:1007F00091E00E94C5007C010E9475023E2C3C24C1
:10080000DD248DB79EB78C199D090FB6F8949EBF55
:100810000FBE8DBFEDB7FEB731962F015F01AC0C57
:10082000BD1C4F0187E291E08A149B0459F00E949D
:10083000C500F40181934F01EBE1F3E03197F1F74B
:100840003826F0CF0E94C50089830E9475028981F5
:10085000F7E02F120CC138120AC18DB69EB68DB7C3
:100860009EB78C199D090FB6F8949EBF0FBE8DBF21
:100870002DB73EB72F5F3F4FFF2495E3E916F104F4
:1008800009F45CC05CF4F2E3EF16F104E1F123E358
:10089000E216F10409F0E6C060E036C086E3E8162F
:1008A000F104C1F196E4E916F10409F0DBC0D901C5
:1008B0004A145B0429F0F20181912F018D93F8CF46
:1008C000F901C080D12CE180F12C5601AE0CBF1C87
:1008D000B594A794B50183E00E94E201B60185E0DA
:1008E0000E94E201B70186E00E94E201B5018AE0C0
:1008F0000E94E201B6018BE00E94E201B70189E0AB
:100900000E94E20104C061E08DE00E9496010E9415
:100910007502A8C092E1E92E91E0F92EF7018081DD
:10092000F2E0EF0EF11C60E00E9496010E94750259
:100930002EE1E21621E0F20689F794C0A12CB12C39
:1009400065018AE0E82EF12C83E480937C0080919D
:100950007A00806480937A0080917A0086FDFCCFD3
:10096000809178002091790090E0922BE5E0E89F5B
:10097000B001E99F700D1124072E000C880B990B14
:100980000E94870629ED34E643E351E40E941307F1
:1009900020E030EC4FE754E40E94E4059B01AC01F9
:1009A000C601B5010E9478055B016C01F1E0EF1A08
:1009B000F10851F620E030E040E251E40E94E40505
:1009C00020E030E040EF51E40E9413070E945606F9
:1009D000F62E83E290E00E946501C8010197F1F7CD
:1009E00084E490E00E946501C8010197F1F782E577
:1009F00090E00E946501C8010197F1F783E590E05E
:100A00000E946501C8010197F1F78CE390E00E9414
:100A10006501C8010197F1F787E090E00E94650148
:100A2000C8010197F1F781E090E00E946501C801DB
:100A30000197F1F785E390E00E946501C8010197F5
:100A4000F1F76F2D87E291E00E941E01C801019726
:100A5000F1F764E36F2587E291E00E941E01C8016F
:100A60000197F1F70FB6F8949EBE0FBE8DBE0FB67C
:100A7000F8947EBE0FBE6DBE8FB7F89440912301EF
:100A80005091240160912501709126018FBF0E9431
:100A90008C016DCEE7E2F1E01382128288EE93E0E2
:100AA000A0E0B0E084839583A683B78384E091E0DF
:100AB0009183808385EC90E09587848784EC90E037
:100AC0009787868780EC90E0918B808B81EC90E01B
:100AD000938B828B82EC90E0958B848B86EC90E0FC
:100AE000978B868B118E128E138E148E089550580C
:100AF000BB27AA270E948F050C94D9060E94CB061B
:100B000038F00E94D20620F039F49F3F19F426F401
:100B10000C94C8060EF4E095E7FB0C94C206E92F8E
:100B20000E94EA0658F3BA1762077307840795070D
:100B300020F079F4A6F50C940C070EF4E0950B2E3A
:100B4000BA2FA02D0B01B90190010C01CA01A0011F
:100B50001124FF27591B99F0593F50F4503E68F17A
:100B60001A16F040A22F232F342F4427585FF3CFBB
:100B7000469537952795A795F0405395C9F77EF48C
:100B80001F16BA0B620B730B840BBAF09150A1F0D5
:100B9000FF0FBB1F661F771F881FC2F70EC0BA0F5B
:100BA000621F731F841F48F4879577956795B795E3
:100BB000F7959E3F08F0B0CF9395880F08F09927DE
:100BC000EE0F9795879508950E94F8050C94D90625
:100BD0000E94D20658F00E94CB0640F029F45F3FF5
:100BE00029F00C94C20651110C940D070C94C80600
:100BF0000E94EA0668F39923B1F3552391F3951BFC
:100C0000550BBB27AA2762177307840738F09F5F2D
:100C10005F4F220F331F441FAA1FA9F335D00E2E9A
:100C20003AF0E0E832D091505040E695001CCAF707
:100C30002BD0FE2F29D0660F771F881FBB1F2617CA
:100C400037074807AB07B0E809F0BB0B802DBF01A1
:100C5000FF2793585F4F3AF09E3F510578F00C9470
:100C6000C2060C940D075F3FE4F3983ED4F38695DB
:100C700077956795B795F7959F5FC9F7880F911D91
:100C80009695879597F90895E1E0660F771F881F7D
:100C9000BB1F621773078407BA0720F0621B730B30
:100CA000840BBA0BEE1F88F7E09508950E94F206B8
:100CB00088F09F5798F0B92F9927B751B0F0E1F01D
:100CC000660F771F881F991F1AF0BA95C9F714C0CD
:100CD000B13091F00E940C07B1E008950C940C071C
:100CE000672F782F8827B85F39F0B93FCCF3869506
:100CF00077956795B395D9F73EF490958095709563
:100D000061957F4F8F4F9F4F0895E89409C097FBDF
:100D10003EF490958095709561957F4F8F4F9F4FD2
:100D20009923A9F0F92F96E9BB279395F695879516
:100D300077956795B795F111F8CFFAF4BB0F11F4D9
:100D400060FF1BC06F5F7F4F8F4F9F4F16C0882380
:100D500011F096E911C0772321F09EE8872F762FB6
:100D600005C0662371F096E8862F70E060E02AF0F7
:100D70009A95660F771F881FDAF7880F96958795E3
:100D800097F9089597F99F6780E870E060E008950B
:100D90009FEF80EC089500240A9416161706180693
:100DA0000906089500240A9412161306140605066F
:100DB0000895092E0394000C11F4882352F0BB0F00
:100DC00040F4BF2B11F460FF04C06F5F7F4F8F4F63
:100DD0009F4F089557FD9058440F551F59F05F3F9E
:100DE00071F04795880F97FB991F61F09F3F79F04D
:100DF00087950895121613061406551FF2CF4695CF
:100E0000F1DF08C0161617061806991FF1CF869550
:100E10007105610508940895E894BB276627772734
:100E2000CB0197F908950E9426070C94D9060E94D9
:100E3000CB0638F00E94D20620F0952311F00C94D6
:100E4000C2060C94C80611240C940D070E94EA06F1
:100E500070F3959FC1F3950F50E0551F629FF0010D
:100E6000729FBB27F00DB11D639FAA27F00DB11D26
:100E7000AA1F649F6627B00DA11D661F829F2227AF
:100E8000B00DA11D621F739FB00DA11D621F839F36
:100E9000A00D611D221F749F3327A00D611D231F0C
:100EA000849F600D211D822F762F6A2F11249F575A
:100EB00050409AF0F1F088234AF0EE0FFF1FBB1F5D
:100EC000661F771F881F91505040A9F79E3F51051C
:100ED00080F00C94C2060C940D075F3FE4F3983E3B
:100EE000D4F3869577956795B795F795E7959F5FC6
:100EF000C1F7FE2B880F911D9695879597F9089558
:100F0000EE0FFF1F0590F491E02D099481E090E031
:0A0F1000F8940C948B07F894FFCFBF
:100F1A00000000001E018700B6006A01E700C50054
:0E0F2A00D90003000500060009000A000B00B4
:00000001FF