:100000000C945D000C9485000C9485000C94850084
:100010000C9485000C9485000C9485000C9485004C
:100020000C9485000C9485000C9485000C9485003C
:100030000C9485000C9485000C9485000C9485002C
:100040000C949B020C9485000C9469020C9443025E
:100050000C9485000C9485000C9485000C9485000C
:100060000C9485000C9485000000000025002800F9
:100070002B0000000000240027002A0004040404D0
:100080000404040402020202020203030303030342
:10009000010204081020408001020408102001021F
:1000A00004081020000000080002010000030407FB
:1000B00000000000000000008F0511241FBECFEFDC
:1000C000D8E0DEBFCDBF11E0A0E0B1E0E4EAFFE0A0
:1000D00002C005900D92A632B107D9F721E0A6E241
:1000E000B1E001C01D92AC3CB207E1F710E0CDE5F4
:1000F000D0E004C02197FE010E94C507CC35D1078E
:10010000C9F70E94E5020C94D0070C940000CF922E
:10011000DF92EF92FF920F931F93CF93DF936C01C7
:100120007A018B01C0E0D0E0CE15DF0589F0D8015F
:100130006D918D01D601ED91FC910190F081E02D42
:10014000C6010995892B11F47E0102C02196ECCFDE
:10015000C701DF91CF911F910F91FF90EF90DF903A
:10016000CF900895089580E090E00895FC01538DAC
:10017000448D252F30E0842F90E0821B930B541781
:1001800010F0CF96089501970895FC01918D828D0E
:10019000981761F0828DDF01A80FB11D5D968C91DB
:1001A000928D9F5F9F73928F90E008958FEF9FEFE6
:1001B0000895FC01918D828D981731F0828DE80FA2
:1001C000F11D858D90E008958FEF9FEF0895FC015C
:1001D000918D228D892F90E0805C9F4F821B910929
:1001E0008F73992708958FE291E00E94E70021E044
:1001F000892B09F420E0822F0895FC01848DDF0112
:10020000A80FB11DA35ABF4F2C91848D90E0019689
:100210008F739927848FA689B7892C93A089B18978
:100220008C9180648C93938D848D981306C0028882
:10023000F389E02D80818F7D80830895EF92FF9276
:100240000F931F93CF93DF93EC0181E0888F9B8DF9
:100250008C8D981305C0E889F989808185FD24C0BB
:10026000F62E0B8D10E00F5F1F4F0F731127E02E3E
:100270008C8DE8120CC00FB607FCFACFE889F9891B
:10028000808185FFF5CFCE010E94FD00F1CF8B8DDF
:10029000FE01E80FF11DE35AFF4FF0820B8FEA8950
:1002A000FB898081806207C0EE89FF896083E889CD
:1002B000F98980818064808381E090E0DF91CF9133
:1002C0001F910F91FF90EF900895682F8FE291E0BA
:1002D0000C941E01CF93DF93EC01888D8823C9F025
:1002E000EA89FB89808185FD05C0A889B9898C913F
:1002F00086FD0FC00FB607FCF5CF808185FFF2CFDA
:10030000A889B9898C9185FFEDCFCE010E94FD00AF
:10031000E7CFDF91CF91089580E090E0892B29F01D
:100320000E94F30081110C940000089590E0FC01FC
:10033000EC55FF4F3491FC01E057FF4F2491FC0135
:10034000E458FF4FE491EE2309F43BC0332339F125
:10035000333091F038F43130A9F0323001F584B502
:100360008F7D12C0373091F03830A1F03430B9F4BD
:10037000809180008F7D03C0809180008F77809373
:1003800080000DC084B58F7784BD09C08091B00016
:100390008F7703C08091B0008F7D8093B000F0E034
:1003A000EE0FFF1FE859FF4FA591B4918FB7F89456
:1003B000EC91611103C020952E2301C02E2B2C93AC
:1003C0008FBF08953FB7F89480912701909128013D
:1003D000A0912901B0912A0126B5A89B05C02F3F05
:1003E00019F00196A11DB11D3FBFBA2FA92F982F5B
:1003F0008827820F911DA11DB11DBC01CD0142E0D6
:10040000660F771F881F991F4A95D1F708958F921D
:100410009F92AF92BF92CF92DF92EF92FF926B01C9
:100420007C010E94E2014B015C01C114D104E10492
:10043000F104F1F00E94E201DC01CB018819990975
:10044000AA09BB09883E9340A105B10570F321E0DC
:10045000C21AD108E108F10888EE880E83E0981EE0
:10046000A11CB11CC114D104E104F10419F7DDCFC2
:10047000FF90EF90DF90CF90BF90AF909F908F90C4
:1004800008950E94CB071F920F920FB60F9211246E
:100490002F933F934F935F936F937F938F939F938C
:1004A000AF93BF93EF93FF938FE291E00E94FD0023
:1004B000FF91EF91BF91AF919F918F917F916F913C
:1004C0005F914F913F912F910F900FBE0F901F9012
:1004D00018951F920F920FB60F9211242F938F939E
:1004E0009F93EF93FF93E0913F01F0914001808152
:1004F000E0914501F091460182FD12C0908180910A
:1005000048018F5F8F7320914901821751F0E0916C
:100510004801F0E0E15DFE4F958F8093480101C0F6
:100520008081FF91EF919F918F912F910F900FBE3E
:100530000F901F9018951F920F920FB60F921124D3
:100540002F933F938F939F93AF93BF9380912B01F2
:1005500090912C01A0912D01B0912E013091260196
:1005600023E0230F2D3720F40196A11DB11D05C0F6
:1005700026E8230F0296A11DB11D2093260180932A
:100580002B0190932C01A0932D01B0932E0180910B
:10059000270190912801A0912901B0912A0101968B
:1005A000A11DB11D8093270190932801A0932901DB
:1005B000B0932A01BF91AF919F918F913F912F915D
:1005C0000F900FBE0F901F901895CF93DF93CDB76C
:1005D000DEB7789484B5826084BD84B5816084BDC3
:1005E00085B5826085BD85B5816085BD80916E00D1
:1005F000816080936E001092810080918100826002
:10060000809381008091810081608093810080913E
:1006100080008160809380008091B100846080932D
:10062000B1008091B00081608093B00080917A0029
:10063000846080937A0080917A00826080937A004F
:1006400080917A00816080937A0080917A0080683E
:1006500080937A001092C100E0913F01F091400137
:1006600082E08083E0913F01F09140011082E091AF
:100670003B01F0913C011082E0913D01F0913E017F
:1006800080E1808310924701E0914301F0914401A1
:1006900086E08083E0914101F09142018081806198
:1006A0008083E0914101F0914201808188608083E4
:1006B000E0914101F0914201808180688083E09166
:1006C0004101F091420180818F7D80830BEC17E026
:1006D0008FB7F89440912B0150912C0160912D011E
:1006E00070912E018FBF8FE291E00E94E700069784
:1006F0000CF407C24DB65EB68FE291E00E94C500D1
:1007000061E070E080E090E00E9407028FE291E0FB
:100710000E94C50061E070E080E090E00E94070266
:100720008FE291E00E94C50061E070E080E090E01F
:100730000E9407028FE291E00E94C50061E070E034
:1007400080E090E00E9407028FE291E00E94C500E5
:1007500061E070E080E090E00E9407028FE291E0AB
:100760000E94C500382E61E070E080E090E00E94B9
:1007700007028FE291E00E94C5006C0161E070E029
:1007800080E090E00E9407028FE291E00E94C500A5
:100790007C0161E070E080E090E00E9407022E2C76
:1007A0002C24DD248DB79EB78C199D090FB6F894C3
:1007B0009EBF0FBE8DBFADB7BEB711963D015D01A7
:1007C000AC0CBD1C4D018FE291E08A149B0459F0E2
:1007D0000E94C500F40181934F01EBE1F3E03197F2
:1007E000F1F72826F0CF0E94C500982E61E070E056
:1007F00080E090E00E940702F4E03F127DC12910E2
:100800007BC18DB69EB68DB79EB78C199D090FB66C
:10081000F8949EBF0FBE8DBF0196FF24A5E3EA1694
:10082000F10409F4CAC064F4E2E3EE16F10409F439
:10083000A3C0F3E3EF16F10409F059C160E09DC0D5
:1008400026E3E216F10409F4A0C0A2E4EA16F104DA
:1008500009F04DC17C01FC016A147B0429F0D3012D
:100860008D913D018193F8CFFEE1CF2EF1E0DF2E97
:10087000F70171907F01672D70E0D6018D919D91F8
:100880006D01AC015527FA01E057FF4F6490FA0162
:10089000E458FF4F2491222399F030E0220F331FB8
:1008A000F901EE58FF4FA591B491F901E859FF4FB6
:1008B000A590B4902FB7F894EC916E2A6C922FBF4C
:1008C0006115710509F446C06F3F710509F444C014
:1008D000FA01EC55FF4FE491E330F9F048F4E130D0
:1008E000B9F0E230A1F584B5806284BD78BC37C030
:1008F000E730E9F0E83019F1E43049F58091800003
:1009000080628093800070938B0060938A0027C080
:1009100084B5806884BD77BC22C0809180008068E7
:1009200080938000709389006093880018C0809144
:10093000B00080688093B0007092B30010C08091C6
:10094000B00080628093B0007092B40008C060383C
:10095000710514F460E001C061E00E94960161E05D
:1009600070E080E090E00E940702B6E2CB16B1E0B2
:10097000DB0609F07DCFBBC061E08DE00E949601EF
:1009800061E070E080E090E0B0C092E1E92E91E09B
:10099000F92EF7018081F2E0EF0EF11C60E00E9479
:1009A000960161E070E080E090E00E9407022EE195
:1009B000E21621E0F20669F79AC0A12CB12C65017C
:1009C0008AE0E82EF12C83E480937C0080917A0009
:1009D000806480937A0080917A0086FDFCCF8091BC
:1009E00078002091790090E0922BA5E0A89FB001BB
:1009F000A99F700D1124072E000C880B990B0E94E3
:100A0000CC0629ED34E643E351E40E94580720E088
:100A100030EC4FE754E40E9429069B01AC01C6016B
:100A2000B5010E94BD055B016C01B1E0EB1AF10854
:100A300051F620E030E040E251E40E94290620E037
:100A400030E040EF51E40E9458070E949B06F62ECA
:100A500083E290E00E946501C8010197F1F784E408
:100A600090E00E946501C8010197F1F782E590E0EE
:100A70000E946501C8010197F1F783E590E00E94AB
:100A80006501C8010197F1F78CE390E00E946501D0
:100A9000C8010197F1F784E090E00E946501C80168
:100AA0000197F1F781E090E00E946501C80101978C
:100AB000F1F785E390E00E946501C8010197F1F725
:100AC0006F2D8FE291E00E941E01C8010197F1F79E
:100AD00064E36F258FE291E00E941E01C801019737
:100AE000F1F76AE070E080E090E00E9407020FB644
:100AF000F8949EBE0FBE8DBE0FB6F8945EBE0FBEBC
:100B00004DBE8FB7F89440912B0150912C0160910C
:100B10002D0170912E018FBF0E948C01D9CDEFE283
:100B2000F1E01382128288EE93E0A0E0B0E08483CB
:100B30009583A683B78384E091E09183808385ECDD
:100B400090E09587848784EC90E09787868780EC97
:100B500090E0918B808B81EC90E0938B828B82EC88
:100B600090E0958B848B86EC90E0978B868B118E32
:100B7000128E138E148E08955058BB27AA270E94F8
:100B8000D4050C941E070E94100738F00E94170726
:100B900020F039F49F3F19F426F40C940D070EF45D
:100BA000E095E7FB0C940707E92F0E942F0758F305
:100BB000BA17620773078407950720F079F4A6F542
:100BC0000C9451070EF4E0950B2EBA2FA02D0B01BB
:100BD000B90190010C01CA01A0011124FF27591B82
:100BE00099F0593F50F4503E68F11A16F040A22F88
:100BF000232F342F4427585FF3CF469537952795F9
:100C0000A795F0405395C9F77EF41F16BA0B620BF7
:100C1000730B840BBAF09150A1F0FF0FBB1F661F3E
:100C2000771F881FC2F70EC0BA0F621F731F841F81
:100C300048F4879577956795B795F7959E3F08F0A7
:100C4000B0CF9395880F08F09927EE0F9795879569
:100C500008950E943D060C941E070E94170758F045
:100C60000E94100740F029F45F3F29F00C94070719
:100C700051110C9452070C940D070E942F0768F332
:100C80009923B1F3552391F3951B550BBB27AA2745
:100C900062177307840738F09F5F5F4F220F331F7F
:100CA000441FAA1FA9F335D00E2E3AF0E0E832D047
:100CB00091505040E695001CCAF72BD0FE2F29D04A
:100CC000660F771F881FBB1F261737074807AB071C
:100CD000B0E809F0BB0B802DBF01FF2793585F4F91
:100CE0003AF09E3F510578F00C9407070C94520798
:100CF0005F3FE4F3983ED4F3869577956795B79573
:100D0000F7959F5FC9F7880F911D9695879597F97D
:100D10000895E1E0660F771F881FBB1F62177307F6
:100D20008407BA0720F0621B730B840BBA0BEE1F0B
:100D300088F7E09508950E94370788F09F5798F04C
:100D4000B92F9927B751B0F0E1F0660F771F881FD0
:100D5000991F1AF0BA95C9F714C0B13091F00E94EA
:100D60005107B1E008950C945107672F782F882719
:100D7000B85F39F0B93FCCF3869577956795B39511
:100D8000D9F73EF490958095709561957F4F8F4F80
:100D90009F4F0895E89409C097FB3EF49095809585
:100DA000709561957F4F8F4F9F4F9923A9F0F92F31
:100DB00096E9BB279395F695879577956795B795AF
:100DC000F111F8CFFAF4BB0F11F460FF1BC06F5F95
:100DD0007F4F8F4F9F4F16C0882311F096E911C0A7
:100DE000772321F09EE8872F762F05C0662371F0C8
:100DF00096E8862F70E060E02AF09A95660F771FDC
:100E0000881FDAF7880F9695879597F9089597F9CF
:100E10009F6780E870E060E008959FEF80EC0895A0
:100E200000240A94161617061806090608950024C9
:100E30000A9412161306140605060895092E039443
:100E4000000C11F4882352F0BB0F40F4BF2B11F4B7
:100E500060FF04C06F5F7F4F8F4F9F4F089557FD16
:100E60009058440F551F59F05F3F71F04795880F18
:100E700097FB991F61F09F3F79F0879508951216AF
:100E800013061406551FF2CF4695F1DF08C016165B
:100E900017061806991FF1CF86957105610508940C
:100EA0000895E894BB2766277727CB0197F9089523
:100EB0000E946B070C941E070E94100738F00E94D6
:100EC000170720F0952311F00C9407070C940D07D9
:100ED00011240C9452070E942F0770F3959FC1F3C1
:100EE000950F50E0551F629FF001729FBB27F00DD8
:100EF000B11D639FAA27F00DB11DAA1F649F66272D
:100F0000B00DA11D661F829F2227B00DA11D621F7B
:100F1000739FB00DA11D621F839FA00D611D221F35
:100F2000749F3327A00D611D231F849F600D211D19
:100F3000822F762F6A2F11249F5750409AF0F1F09C
:100F400088234AF0EE0FFF1FBB1F661F771F881F05
:100F500091505040A9F79E3F510580F00C9407072F
:100F60000C9452075F3FE4F3983ED4F3869577954F
:100F70006795B795F795E7959F5FC1F7FE2B880FAB
:100F8000911D9695879597F90895EE0FFF1F05908F
:100F9000F491E02D099481E090E0F8940C94D0074E
:040FA000F894FFCFF3
:100FA400000000001E018700B6006A01E700C500CA
:100FB400D90003000500060009000A000B00030025
:060FC4000A000B00090009
:00000001FF