:100000000C945D000C9485000C9485000C94850084
:100010000C9485000C9485000C9485000C9485004C
:100020000C9485000C9485000C9485000C9485003C
:100030000C9485000C9485000C9485000C9485002C
:100040000C949A020C9485000C9468020C94420261
:100050000C9485000C9485000C9485000C9485000C
:100060000C9485000C94850000000008000201003B
:100070000003040700000000000000000000000072
:10008000250028002B0000000000240027002A0083
:10009000040404040404040402020202020203032E
:1000A0000303030301020408102040800102040836
:1000B0001020010204081020540511241FBECFEFA8
:1000C000D8E0DEBFCDBF11E0A0E0B1E0EEE2FFE09E
:1000D00002C005900D92AE31B107D9F721E0AEE133
:1000E000B1E001C01D92A43CB207E1F710E0CDE5FC
:1000F000D0E004C02197FE010E948A07CC35D107C9
:10010000C9F70E94E4020C9495070C94000090E05B
:10011000FC01EC55FF4F2491FC01E057FF4F849107
:10012000882399F090E0880F991FFC01EA57FF4F50
:10013000A591B491FC01E458FF4F859194918FB73C
:10014000F894EC91E22BEC938FBF0895CF92DF925D
:10015000EF92FF920F931F93CF93DF936C017A017D
:100160008B01C0E0D0E0CE15DF0589F0D8016D919C
:100170008D01D601ED91FC910190F081E02DC60139
:100180000995892B11F47E0102C02196ECCFC7019D
:10019000DF91CF911F910F91FF90EF90DF90CF9063
:1001A0000895089580E090E00895FC01538D448DFA
:1001B000252F30E0842F90E0821B930B541710F012
:1001C000CF96089501970895FC01918D828D98171F
:1001D00061F0828DDF01A80FB11D5D968C91928D2B
:1001E0009F5F9F73928F90E008958FEF9FEF089528
:1001F000FC01918D828D981731F0828DE80FF11DF1
:10020000858D90E008958FEF9FEF0895FC01918D0B
:10021000228D892F90E0805C9F4F821B91098F7304
:100220009927089587E291E00E94060121E0892B39
:1002300009F420E0822F0895FC01848DDF01A80FCE
:10024000B11DA35ABF4F2C91848D90E001968F73FE
:100250009927848FA689B7892C93A089B1898C911D
:1002600080648C93938D848D981306C00288F389E3
:10027000E02D80818F7D80830895EF92FF920F9310
:100280001F93CF93DF93EC0181E0888F9B8D8C8D42
:10029000981305C0E889F989808185FD24C0F62E70
:1002A0000B8D10E00F5F1F4F0F731127E02E8C8D09
:1002B000E8120CC00FB607FCFACFE889F9898081F3
:1002C00085FFF5CFCE010E941C01F1CF8B8DFE0181
:1002D000E80FF11DE35AFF4FF0820B8FEA89FB898B
:1002E0008081806207C0EE89FF896083E889F9898F
:1002F00080818064808381E090E0DF91CF911F91C5
:100300000F91FF90EF900895682F87E291E00C9491
:100310003D01CF93DF93EC01888D8823C9F0EA89F2
:10032000FB89808185FD05C0A889B9898C9186FDEE
:100330000FC00FB607FCF5CF808185FFF2CFA889EB
:10034000B9898C9185FFEDCFCE010E941C01E7CFCA
:10035000DF91CF91089580E090E0892B29F00E94F1
:10036000120181110C940000089590E0FC01E859FD
:10037000FF4F3491FC01EC55FF4F2491FC01E057F5
:10038000FF4FE491EE2309F43BC0332339F13330BE
:1003900091F038F43130A9F0323001F584B58F7D19
:1003A00012C0373091F03830A1F03430B9F4809178
:1003B00080008F7D03C0809180008F7780938000C4
:1003C0000DC084B58F7784BD09C08091B0008F7750
:1003D00003C08091B0008F7D8093B000F0E0EE0FFD
:1003E000FF1FE458FF4FA591B4918FB7F894EC919B
:1003F000611103C020952E2301C02E2B2C938FBF9B
:1004000008953FB7F89480911F0190912001A09129
:100410002101B091220126B5A89B05C02F3F19F0FC
:100420000196A11DB11D3FBFBA2FA92F982F882774
:10043000820F911DA11DB11DBC01CD0142E0660FCF
:10044000771F881F991F4A95D1F70895CF92DF92A1
:10045000EF92FF920E9401026B017C010E94010257
:10046000DC01CB018C199D09AE09BF09883E934080
:10047000A105B10598F3FF90EF90DF90CF9008951C
:100480000E9490071F920F920FB60F9211242F9384
:100490003F934F935F936F937F938F939F93AF930C
:1004A000BF93EF93FF9387E291E00E941C01FF91BD
:1004B000EF91BF91AF919F918F917F916F915F91DC
:1004C0004F913F912F910F900FBE0F901F90189555
:1004D0001F920F920FB60F9211242F938F939F9319
:1004E000EF93FF93E0913701F09138018081E09123
:1004F0003D01F0913E0182FD12C09081809140014A
:100500008F5F8F7320914101821751F0E09140017C
:10051000F0E0E95DFE4F958F8093400101C080813E
:10052000FF91EF919F918F912F910F900FBE0F90A0
:100530001F9018951F920F920FB60F9211242F93B0
:100540003F938F939F93AF93BF938091230190919B
:100550002401A0912501B091260130911E0123E0D4
:10056000230F2D3720F40196A11DB11D05C026E8EB
:10057000230F0296A11DB11D20931E01809323011C
:1005800090932401A0932501B093260180911F012F
:1005900090912001A0912101B09122010196A11D0D
:1005A000B11D80931F0190932001A0932101B0936E
:1005B0002201BF91AF919F918F913F912F910F9009
:1005C0000FBE0F901F901895CF93DF9300D01F920E
:1005D000CDB7DEB7789484B5826084BD84B5816080
:1005E00084BD85B5826085BD85B5816085BD8091FE
:1005F0006E00816080936E00109281008091810076
:10060000826080938100809181008160809381006D
:10061000809180008160809380008091B10084602F
:100620008093B1008091B00081608093B000809190
:100630007A00846080937A0080917A00826080934F
:100640007A0080917A00816080937A0080917A00AC
:10065000806880937A001092C100E0913701F09198
:10066000380182E08083E0913701F09138011082F7
:10067000E0913301F09134011082E0913501F09165
:10068000360180E1808310923F01E0913B01F091BF
:100690003C0186E08083E0913901F0913A0180814C
:1006A00080618083E0913901F0913A018081886016
:1006B0008083E0913901F0913A01808180688083E4
:1006C000E0913901F0913A0180818F7D80830BECBC
:1006D00017E042E3A42EB12C8FB7F8944091230188
:1006E0005091240160912501709126018FBF87E20E
:1006F00091E00E94060106970CF4C8C18DB79EB721
:100700009A83898387E291E00E94E4000E94260296
:1007100087E291E00E94E4000E94260287E291E0D5
:100720000E94E4000E94260287E291E00E94E40019
:100730000E94260287E291E00E94E4000E942602C5
:1007400087E291E00E94E400582E0E94260287E290
:1007500091E00E94E4006C010E94260287E291E091
:100760000E94E4007C010E9426024E2C4C24DD24D1
:10077000ADB7BEB7AC19BD090FB6F894BEBF0FBE7A
:10078000ADBFEDB7FEB731963F014F018C0C9D1CFC
:100790001F0187E291E02814390459F00E94E40017
:1007A000D1018D931D01EBE1F3E03197F1F748267C
:1007B000F0CF0E94E4008B830E9426028B81B1E07F
:1007C0005B125DC148125BC14DB65EB6EDB7FEB7B8
:1007D000EC19FD090FB6F894FEBF0FBEEDBF8DB743
:1007E0009EB70196FF24F5E3EF16F10409F4ACC0BF
:1007F00064F482E3E816F10409F487C093E3E91690
:10080000F10409F037C160E081C0A6E3EA16F10403
:1008100009F482C0BCE3EB16F10409F02BC17C01A2
:10082000FC016814790429F0D3012D913D01219335
:10083000F8CF22E1822E21E0922EC80ED91E32E39B
:10084000732EEC14FD0409F415C1F70181917F01A9
:10085000843641F4D4016C90862D0E94870060E0BC
:10086000862D4BC0883C09F04CC0F40120803180BB
:10087000822D0E948700F101FF27E859FF4FE49184
:10088000E330F9F048F4E130B9F0E230A1F584B595
:10089000806284BD78BC33C0E730E9F0E83019F1FC
:1008A000E43049F580918000806280938000B092AE
:1008B0008B00A0928A0023C084B5806884BD77BC79
:1008C0001EC080918000806880938000B092890073
:1008D000A092880014C08091B00080688093B0001E
:1008E0007092B3000CC08091B00080628093B00021
:1008F0007092B40004C060E0822D0E94B5010E9495
:100900002602F2E08F0E911C9CCF61E08DE00E94E8
:10091000B5010E942602AEC092E1E92E91E0F92EC7
:10092000D7018C91B2E0EB0EF11C60E00E94B501A2
:100930000E94260260E08DE00E94B501EEE1EE1615
:10094000E1E0FE0669F796C0612C712C43018AE054
:10095000E82EF12CF3E4F0937C0080917A0080641F
:1009600080937A0080917A0086FDFCCF8091780098
:100970002091790090E0922B25E0289FB001299FDB
:10098000700D1124072E000C880B990B0E94910604
:1009900029ED34E643E351E40E941D0720E030ECEA
:1009A0004FE754E40E94EE059B01AC01C401B30182
:1009B0000E9482053B014C0181E0E81AF10851F6E2
:1009C00020E030E040E251E4C401B3010E94EE05B2
:1009D00020E030E040EF51E40E941D070E946006D5
:1009E000F62E83E290E00E948401C8010197F1F79E
:1009F00084E490E00E948401C8010197F1F782E548
:100A000090E00E948401C8010197F1F783E590E02E
:100A10000E948401C8010197F1F78CE390E00E94E5
:100A20008401C8010197F1F781E090E00E94840100
:100A3000C8010197F1F781E090E00E948401C801AC
:100A40000197F1F785E390E00E948401C8010197C6
:100A5000F1F76F2D87E291E00E943D01C8010197F7
:100A6000F1F764E36F2587E291E00E943D01C80140
:100A70000197F1F70FB6F8945EBE0FBE4DBEA98187
:100A8000BA810FB6F894BEBF0FBEADBF8FB7F89452
:100A9000409123015091240160912501709126011C
:100AA0008FBF0E94AB0118CEE7E2F1E01382128201
:100AB00088EE93E0A0E0B0E084839583A683B783BB
:100AC00084E091E09183808385EC90E09587848732
:100AD00084EC90E09787868780EC90E0918B808B08
:100AE00081EC90E0938B828B82EC90E0958B848BF1
:100AF00086EC90E0978B868B118E128E138E148E5F
:100B000008955058BB27AA270E9499050C94E30624
:100B10000E94D50638F00E94DC0620F039F49F3F91
:100B200019F426F40C94D2060EF4E095E7FB0C942D
:100B3000CC06E92F0E94F40658F3BA176207730730
:100B40008407950720F079F4A6F50C9416070EF4A7
:100B5000E0950B2EBA2FA02D0B01B90190010C01CD
:100B6000CA01A0011124FF27591B99F0593F50F4E5
:100B7000503E68F11A16F040A22F232F342F44273D
:100B8000585FF3CF469537952795A795F040539535
:100B9000C9F77EF41F16BA0B620B730B840BBAF005
:100BA0009150A1F0FF0FBB1F661F771F881FC2F770
:100BB0000EC0BA0F621F731F841F48F48795779584
:100BC0006795B795F7959E3F08F0B0CF9395880F3E
:100BD00008F09927EE0F9795879508950E940206D1
:100BE0000C94E3060E94DC0658F00E94D50640F003
:100BF00029F45F3F29F00C94CC0651110C9417078F
:100C00000C94D2060E94F40668F39923B1F355239D
:100C100091F3951B550BBB27AA276217730784070F
:100C200038F09F5F5F4F220F331F441FAA1FA9F3A5
:100C300035D00E2E3AF0E0E832D091505040E69593
:100C4000001CCAF72BD0FE2F29D0660F771F881FF4
:100C5000BB1F261737074807AB07B0E809F0BB0BE7
:100C6000802DBF01FF2793585F4F3AF09E3F5105FB
:100C700078F00C94CC060C9417075F3FE4F3983E91
:100C8000D4F3869577956795B795F7959F5FC9F7E4
:100C9000880F911D9695879597F90895E1E0660F65
:100CA000771F881FBB1F621773078407BA0720F0DE
:100CB000621B730B840BBA0BEE1F88F7E095089547
:100CC0000E94FC0688F09F5798F0B92F9927B751DA
:100CD000B0F0E1F0660F771F881F991F1AF0BA95E0
:100CE000C9F714C0B13091F00E941607B1E0089521
:100CF0000C941607672F782F8827B85F39F0B93F13
:100D0000CCF3869577956795B395D9F73EF4909592
:100D10008095709561957F4F8F4F9F4F0895E89410
:100D200009C097FB3EF490958095709561957F4F33
:100D30008F4F9F4F9923A9F0F92F96E9BB279395E1
:100D4000F695879577956795B795F111F8CFFAF4F1
:100D5000BB0F11F460FF1BC06F5F7F4F8F4F9F4F22
:100D600016C0882311F096E911C0772321F09EE880
:100D7000872F762F05C0662371F096E8862F70E0E6
:100D800060E02AF09A95660F771F881FDAF7880FC0
:100D90009695879597F9089597F99F6780E870E091
:100DA00060E008959FEF80EC089500240A941616E1
:100DB000170618060906089500240A941216130649
:100DC000140605060895092E0394000C11F48823D7
:100DD00052F0BB0F40F4BF2B11F460FF04C06F5FF3
:100DE0007F4F8F4F9F4F089557FD9058440F551FC9
:100DF00059F05F3F71F04795880F97FB991F61F09D
:100E00009F3F79F087950895121613061406551F13
:100E1000F2CF4695F1DF08C0161617061806991F7F
:100E2000F1CF86957105610508940895E894BB2774
:100E300066277727CB0197F908950E9430070C9415
:100E4000E3060E94D50638F00E94DC0620F09523C8
:100E500011F00C94CC060C94D20611240C941707B4
:100E60000E94F40670F3959FC1F3950F50E0551F53
:100E7000629FF001729FBB27F00DB11D639FAA27EF
:100E8000F00DB11DAA1F649F6627B00DA11D661F3E
:100E9000829F2227B00DA11D621F739FB00DA11D5F
:100EA000621F839FA00D611D221F749F3327A00D19
:100EB000611D231F849F600D211D822F762F6A2FB5
:100EC00011249F5750409AF0F1F088234AF0EE0F1A
:100ED000FF1FBB1F661F771F881F91505040A9F747
:100EE0009E3F510580F00C94CC060C9417075F3F91
:100EF000E4F3983ED4F3869577956795B795F79583
:100F0000E7959F5FC1F7FE2B880F911D96958795FA
:100F100097F90895EE0FFF1F0590F491E02D0994C5
:0E0F200081E090E0F8940C949507F894FFCFD0
:100F2E00000000003D01A600D50089010601E40085
:0E0F3E00F800090006000A00030005000B0081
:00000001FF