:100000000C945D000C9485000C9485000C94850084
:100010000C9485000C9485000C9485000C9485004C
:100020000C9485000C9485000C9485000C9485003C
:100030000C9485000C9485000C9485000C9485002C
:100040000C94E9020C9485000C94B7020C94910274
:100050000C9485000C9485000C9485000C9485000C
:100060000C9485000C9485000000000024002700FB
:100070002A0000000000250028002B0004040404CE
:100080000404040402020202020203030303030342
:10009000010204081020408001020408102001021F
:1000A00004081020000000080002010000030407FB
:1000B00000000000000000004F0511241FBECFEF1C
:1000C000D8E0DEBFCDBF11E0A0E0B1E0E4E2FFE0A8
:1000D00002C005900D92AA32B107D9F721E0AAE239
:1000E000B1E001C01D92A03DB207E1F710E0CDE5FF
:1000F000D0E004C02197FE010E948507CC35D107CE
:10010000C9F70E9433030C9490070C940000CF921F
:10011000DF92EF92FF920F931F93CF93DF936C01C7
:100120007A018B01C0E0D0E0CE15DF0589F0D8015F
:100130006D918D01D601ED91FC910190F081E02D42
:10014000C6010995892B11F47E0102C02196ECCFDE
:10015000C701DF91CF911F910F91FF90EF90DF903A
:10016000CF900895089580E090E00895FC01538DAC
:10017000448D252F30E0842F90E0821B930B541781
:1001800010F0CF96089501970895FC01918D828D0E
:10019000981761F0828DDF01A80FB11D5D968C91DB
:1001A000928D9F5F9F73928F90E008958FEF9FEFE6
:1001B0000895FC01918D828D981731F0828DE80FA2
:1001C000F11D858D90E008958FEF9FEF0895FC015C
:1001D000918D228D892F90E0805C9F4F821B910929
:1001E0008F739927089583E391E00E94E70021E04F
:1001F000892B09F420E0822F0895FC01848DDF0112
:10020000A80FB11DA35ABF4F2C91848D90E0019689
:100210008F739927848FA689B7892C93A089B18978
:100220008C9180648C93938D848D981306C0028882
:10023000F389E02D80818F7D80830895EF92FF9276
:100240000F931F93CF93DF93EC0181E0888F9B8DF9
:100250008C8D981305C0E889F989808185FD24C0BB
:10026000F62E0B8D10E00F5F1F4F0F731127E02E3E
:100270008C8DE8120CC00FB607FCFACFE889F9891B
:10028000808185FFF5CFCE010E94FD00F1CF8B8DDF
:10029000FE01E80FF11DE35AFF4FF0820B8FEA8950
:1002A000FB898081806207C0EE89FF896083E889CD
:1002B000F98980818064808381E090E0DF91CF9133
:1002C0001F910F91FF90EF900895682F83E391E0C5
:1002D0000C941E01CF93DF93EC01888D8823C9F025
:1002E000EA89FB89808185FD05C0A889B9898C913F
:1002F00086FD0FC00FB607FCF5CF808185FFF2CFDA
:10030000A889B9898C9185FFEDCFCE010E94FD00AF
:10031000E7CFDF91CF91089580E090E0892B29F01D
:100320000E94F30081110C940000089590E0FC01FC
:10033000EC55FF4F3491FC01E057FF4F2491FC0135
:10034000E458FF4FE491EE2309F43BC0332339F125
:10035000333091F038F43130A9F0323001F584B502
:100360008F7D12C0373091F03830A1F03430B9F4BD
:10037000809180008F7D03C0809180008F77809373
:1003800080000DC084B58F7784BD09C08091B00016
:100390008F7703C08091B0008F7D8093B000F0E034
:1003A000EE0FFF1FEE58FF4FA591B4918FB7F89451
:1003B000EC91611103C020952E2301C02E2B2C93AC
:1003C0008FBF0895482F50E0FA01E057FF4F9491F6
:1003D000FA01E458FF4F2491222399F030E0220FD4
:1003E000331FF901E859FF4FA591B491F901EE5877
:1003F000FF4F259134912FB7F894EC91E92BEC93B2
:100400002FBF6115710511F460E004C06F3F7105E5
:1004100019F461E00C949601FA01EC55FF4FE49158
:10042000E330F9F048F4E130B9F0E230A1F584B5F9
:10043000806284BD68BD0895E730E9F0E83019F1C5
:10044000E43049F580918000806280938000709351
:100450008B0060938A00089584B5806884BD67BD71
:100460000895809180008068809380007093890057
:100470006093880008958091B00080688093B000F8
:100480006093B30008958091B00080628093B000C3
:100490006093B4000895603871050CF0BACFB4CF02
:1004A0003FB7F89480912B0190912C01A0912D01E0
:1004B000B0912E0126B5A89B05C02F3F19F00196DB
:1004C000A11DB11D3FBFBA2FA92F982F8827820FDA
:1004D000911DA11DB11DBC01CD0142E0660F771F2A
:1004E000881F991F4A95D1F70895CF92DF92EF9216
:1004F000FF920E9450026B017C010E945002DC01BD
:10050000CB018C199D09AE09BF09883E9340A10516
:10051000B10598F3FF90EF90DF90CF9008950E947F
:100520008B071F920F920FB60F9211242F933F93B8
:100530004F935F936F937F938F939F93AF93BF93EB
:10054000EF93FF9383E391E00E94FD00FF91EF9111
:10055000BF91AF919F918F917F916F915F914F91DB
:100560003F912F910F900FBE0F901F9018951F92E3
:100570000F920FB60F9211242F938F939F93EF93A7
:10058000FF93E0914301F09144018081E0914901A2
:10059000F0914A0182FD12C0908180914C018F5FE1
:1005A0008F7320914D01821751F0E0914C01F0E0E2
:1005B000ED5CFE4F958F80934C0101C08081FF91CF
:1005C000EF919F918F912F910F900FBE0F901F90E1
:1005D00018951F920F920FB60F9211242F933F93ED
:1005E0008F939F93AF93BF9380912F019091300190
:1005F000A0913101B091320130912A0123E0230F03
:100600002D3720F40196A11DB11D05C026E8230F4A
:100610000296A11DB11D20932A0180932F01909372
:100620003001A0933101B093320180912B01909160
:100630002C01A0912D01B0912E010196A11DB11D9B
:1006400080932B0190932C01A0932D01B0932E0148
:10065000BF91AF919F918F913F912F910F900FBEBE
:100660000F901F901895CF93DF931F92CDB7DEB7F1
:10067000789484B5826084BD84B5816084BD85B57D
:10068000826085BD85B5816085BD80916E00816089
:1006900080936E001092810080918100826080932F
:1006A0008100809181008160809381008091800031
:1006B0008160809380008091B10084608093B1005C
:1006C0008091B00081608093B00080917A00846056
:1006D00080937A0080917A00826080937A00809182
:1006E0007A00816080937A0080917A00806880939C
:1006F0007A001092C100E0914301F091440182E040
:100700008083E0914301F09144011082E0913F0128
:10071000F09140011082E0914101F091420180E1AD
:10072000808310924B01E0914701F091480186E0EF
:100730008083E0914501F091460180818061808352
:10074000E0914501F0914601808188608083E091CD
:100750004501F0914601808180688083E0914501E8
:10076000F091460180818F7D80830BEC17E08FB77D
:10077000F89440912F0150913001609131017091B6
:1007800032018FBF83E391E00E94E70006970CF4EB
:1007900078C14DB65EB683E391E00E94C5000E9429
:1007A000750283E391E00E94C5000E94750283E315
:1007B00091E00E94C5000E94750283E391E00E94CF
:1007C000C5000E94750283E391E00E94C5000E946B
:1007D000750283E391E00E94C500282E0E947502F5
:1007E00083E391E00E94C5006C010E94750283E3DF
:1007F00091E00E94C5007C010E9475023E2C3C24C1
:10080000DD248DB79EB78C199D090FB6F8949EBF55
:100810000FBE8DBFADB7BEB711965D014D018C0CFB
:100820009D1C3D0183E391E06814790459F00E9416
:10083000C500F30181933F01EBE1F3E03197F1F75C
:100840003826F0CF0E94C50089830E9475028981F5
:10085000FAE02F1211C138120FC16DB67EB68DB7F6
:100860009EB78C199D090FB6F8949EBF0FBE8DBF21
:10087000ADB7BEB711966D01FF24B5E3EB16F104D9
:1008800009F461C064F4F2E3EF16F10409F440C026
:1008900023E3E216F10409F0EAC060E03AC086E31F
:1008A000E816F104E1F19CE4E916F10409F0DFC077
:1008B000F601A814B90429F0D5018D915D01819349
:1008C000F8CF24E2A22E21E0B22E3EE1E32E31E069
:1008D000F32EF5018081F2E0AF0EB11CD6016C91D0
:1008E00070E00E94E2010E947502F7018081F2E04F
:1008F000EF0EF11CD60111966C9170E00E94E2019E
:100900000E947502BAE2AB16B1E0BB0611F7AFC0A8
:1009100061E08DE00E9496010E947502A8C092E1FC
:10092000E92E91E0F92EF7018081F2E0EF0EF11C43
:1009300060E00E9496010E9475022EE1E21621E01D
:10094000F20689F794C0812C912C54018AE0E82E9C
:10095000F12C83E480937C0080917A008064809302
:100960007A0080917A0086FDFCCF809178002091FA
:10097000790090E0922BA5E0A89FB001A99F700D8F
:100980001124072E000C880B990B0E948C0629ED70
:1009900034E643E351E40E94180720E030EC4FE7CF
:1009A00054E40E94E9059B01AC01C501B4010E9419
:1009B0007D054B015C01B1E0EB1AF10851F620E036
:1009C00030E040E251E40E94E90520E030E040EFF1
:1009D00051E40E9418070E945B06F62E83E290E025
:1009E0000E946501C8010197F1F784E490E00E943C
:1009F0006501C8010197F1F782E590E00E94650169
:100A0000C8010197F1F783E590E00E946501C801F4
:100A10000197F1F78CE390E00E946501C80101970E
:100A2000F1F78AE090E00E946501C8010197F1F7B3
:100A300081E090E00E946501C8010197F1F785E32C
:100A400090E00E946501C8010197F1F76F2D83E3E3
:100A500091E00E941E01C8010197F1F764E36F2540
:100A600083E391E00E941E01C8010197F1F70FB6E0
:100A7000F8947EBE0FBE6DBE0FB6F8945EBE0FBE7C
:100A80004DBE8FB7F89440912F0150913001609185
:100A90003101709132018FBF0E948C0168CEE3E377
:100AA000F1E01382128288EE93E0A0E0B0E084834C
:100AB0009583A683B78384E091E09183808385EC5E
:100AC00090E09587848784EC90E09787868780EC18
:100AD00090E0918B808B81EC90E0938B828B82EC09
:100AE00090E0958B848B86EC90E0978B868B118EB3
:100AF000128E138E148E08955058BB27AA270E9479
:100B000094050C94DE060E94D00638F00E94D706A9
:100B100020F039F49F3F19F426F40C94CD060EF41E
:100B2000E095E7FB0C94C706E92F0E94EF0658F307
:100B3000BA17620773078407950720F079F4A6F5C2
:100B40000C9411070EF4E0950B2EBA2FA02D0B017B
:100B5000B90190010C01CA01A0011124FF27591B02
:100B600099F0593F50F4503E68F11A16F040A22F08
:100B7000232F342F4427585FF3CF46953795279579
:100B8000A795F0405395C9F77EF41F16BA0B620B78
:100B9000730B840BBAF09150A1F0FF0FBB1F661FBF
:100BA000771F881FC2F70EC0BA0F621F731F841F02
:100BB00048F4879577956795B795F7959E3F08F028
:100BC000B0CF9395880F08F09927EE0F97958795EA
:100BD00008950E94FD050C94DE060E94D70658F089
:100BE0000E94D00640F029F45F3F29F00C94C7061C
:100BF00051110C9412070C94CD060E94EF0668F375
:100C00009923B1F3552391F3951B550BBB27AA27C5
:100C100062177307840738F09F5F5F4F220F331FFF
:100C2000441FAA1FA9F335D00E2E3AF0E0E832D0C7
:100C300091505040E695001CCAF72BD0FE2F29D0CA
:100C4000660F771F881FBB1F261737074807AB079C
:100C5000B0E809F0BB0B802DBF01FF2793585F4F11
:100C60003AF09E3F510578F00C94C7060C94120799
:100C70005F3FE4F3983ED4F3869577956795B795F3
:100C8000F7959F5FC9F7880F911D9695879597F9FE
:100C90000895E1E0660F771F881FBB1F6217730777
:100CA0008407BA0720F0621B730B840BBA0BEE1F8C
:100CB00088F7E09508950E94F70688F09F5798F00E
:100CC000B92F9927B751B0F0E1F0660F771F881F51
:100CD000991F1AF0BA95C9F714C0B13091F00E946B
:100CE0001107B1E008950C941107672F782F88271A
:100CF000B85F39F0B93FCCF3869577956795B39592
:100D0000D9F73EF490958095709561957F4F8F4F00
:100D10009F4F0895E89409C097FB3EF49095809505
:100D2000709561957F4F8F4F9F4F9923A9F0F92FB1
:100D300096E9BB279395F695879577956795B7952F
:100D4000F111F8CFFAF4BB0F11F460FF1BC06F5F15
:100D50007F4F8F4F9F4F16C0882311F096E911C027
:100D6000772321F09EE8872F762F05C0662371F048
:100D700096E8862F70E060E02AF09A95660F771F5C
:100D8000881FDAF7880F9695879597F9089597F950
:100D90009F6780E870E060E008959FEF80EC089521
:100DA00000240A941616170618060906089500244A
:100DB0000A9412161306140605060895092E0394C4
:100DC000000C11F4882352F0BB0F40F4BF2B11F438
:100DD00060FF04C06F5F7F4F8F4F9F4F089557FD97
:100DE0009058440F551F59F05F3F71F04795880F99
:100DF00097FB991F61F09F3F79F087950895121630
:100E000013061406551FF2CF4695F1DF08C01616DB
:100E100017061806991FF1CF86957105610508948C
:100E20000895E894BB2766277727CB0197F90895A3
:100E30000E942B070C94DE060E94D00638F00E9418
:100E4000D70620F0952311F00C94C7060C94CD061C
:100E500011240C9412070E94EF0670F3959FC1F3C2
:100E6000950F50E0551F629FF001729FBB27F00D58
:100E7000B11D639FAA27F00DB11DAA1F649F6627AD
:100E8000B00DA11D661F829F2227B00DA11D621FFC
:100E9000739FB00DA11D621F839FA00D611D221FB6
:100EA000749F3327A00D611D231F849F600D211D9A
:100EB000822F762F6A2F11249F5750409AF0F1F01D
:100EC00088234AF0EE0FFF1FBB1F661F771F881F86
:100ED00091505040A9F79E3F510580F00C94C706F1
:100EE0000C9412075F3FE4F3983ED4F38695779510
:100EF0006795B795F795E7959F5FC1F7FE2B880F2C
:100F0000911D9695879597F90895EE0FFF1F05900F
:100F1000F491E02D099481E090E0F8940C9490070E
:040F2000F894FFCF73
:100F2400000000001E018700B6006A01E700C5004A
:100F3400D90003000500060009000A000B000A009E
:0A0F440006000900030005000B0081
:00000001FF