:100000000C9467000C948F000C948F000C948F005C
:100010000C948F000C948F000C948F000C948F0024
:100020000C948F000C948F000C948F000C948F0014
:100030000C948F000C948F000C948F000C948F0004
:100040000C9415040C948F000C94E3030C94BD03E2
:100050000C948F000C948F000C948F000C948F00E4
:100060000C948F000C948F00270366034F035603F4
:100070005B038103620378037F0300000000240018
:1000800027002A0000000000250028002B0004049F
:100090000404040404040202020202020303030330
:1000A000030301020408102040800102040810200C
:1000B00001020408102000000008000201000003F3
:1000C000040700000000000000005F041A0511246E
:1000D0001FBECFEFD8E0DEBFCDBF11E0A0E0B1E0A2
:1000E000ECEEFEE002C005900D92AE31B107D9F7FB
:1000F00021E0AEE1B1E001C01D92A53DB207E1F7FC
:1001000010E0C6E6D0E004C02197FE010E94200561
:10011000C536D107C9F70E949A040C9469070C945C
:100120000000CF92DF92EF92FF920F931F93CF9335
:10013000DF936C017A018B01C0E0D0E0CE15DF05C2
:1001400089F0D8016D918D01D601ED91FC9101905E
:10015000F081E02DC6010995892B11F47E0102C0C2
:100160002196ECCFC701DF91CF911F910F91FF90A6
:10017000EF90DF90CF900895FC01918D828D9817BC
:1001800061F0828DDF01A80FB11D5D968C91928D7B
:100190009F5F9F73928F90E008958FEF9FEF089578
:1001A000FC01918D828D981731F0828DE80FF11D41
:1001B000858D90E008958FEF9FEF0895FC01918D5C
:1001C000228D892F90E0805C9F4F821B91098F7355
:1001D000992708958EE291E00E94DE0021E0892BAC
:1001E00009F420E0822F0895FC01848DDF01A80F1F
:1001F000B11DA35ABF4F2C91848D90E001968F734F
:100200009927848FA689B7892C93A089B1898C916D
:1002100080648C93938D848D981306C00288F38933
:10022000E02D80818F7D80830895EF92FF920F9360
:100230001F93CF93DF93EC0181E0888F9B8D8C8D92
:10024000981305C0E889F989808185FD24C0F62EC0
:100250000B8D10E00F5F1F4F0F731127E02E8C8D59
:10026000E8120CC00FB607FCFACFE889F989808143
:1002700085FFF5CFCE010E94F400F1CF8B8DFE01FA
:10028000E80FF11DE35AFF4FF0820B8FEA89FB89DB
:100290008081806207C0EE89FF896083E889F989DF
:1002A00080818064808381E090E0DF91CF911F9115
:1002B0000F91FF90EF900895CF93DF93EC01888D1D
:1002C0008823C9F0EA89FB89808185FD05C0A8895A
:1002D000B9898C9186FD0FC00FB607FCF5CF8081E0
:1002E00085FFF2CFA889B9898C9185FFEDCFCE012A
:1002F0000E94F400E7CFDF91CF91089590E0FC01D8
:10030000EA54FF4F3491FC01EE55FF4F2491FC015C
:10031000E257FF4FE491EE2309F43BC0332339F158
:10032000333091F038F43130A9F0323001F584B532
:100330008F7D12C0373091F03830A1F03430B9F4ED
:10034000809180008F7D03C0809180008F778093A3
:1003500080000DC084B58F7784BD09C08091B00046
:100360008F7703C08091B0008F7D8093B000F0E064
:10037000EE0FFF1FEC57FF4FA591B4918FB7F89484
:10038000EC91611103C020952E2301C02E2B2C93DC
:100390008FBF0895482F50E0FA01EE55FF4F94911A
:1003A000FA01E257FF4F2491222399F030E0220F07
:1003B000331FF901E658FF4FA591B491F901EC57AD
:1003C000FF4F259134912FB7F894EC91E92BEC93E2
:1003D0002FBF6115710511F460E004C06F3F710516
:1003E00019F461E00C947E01FA01EA54FF4FE491A4
:1003F000E330F9F048F4E130B9F0E230A1F584B52A
:10040000806284BD68BD0895E730E9F0E83019F1F5
:10041000E43049F580918000806280938000709381
:100420008B0060938A00089584B5806884BD67BDA1
:100430000895809180008068809380007093890087
:100440006093880008958091B00080688093B00028
:100450006093B30008958091B00080628093B000F3
:100460006093B4000895603871050CF0BACFB4CF32
:100470003FB7F89480912A0190912B01A0912C0113
:10048000B0912D0126B5A89B05C02F3F19F001960C
:10049000A11DB11D3FBFBA2FA92F982F8827820F0A
:1004A000911DA11DB11DBC01CD0142E0660F771F5A
:1004B000881F991F4A95D1F708958F929F92AF9206
:1004C000BF92CF92DF92EF92FF920E9438024B01CF
:1004D0005C018AE0C82ED12CE12CF12C0E9438025C
:1004E000DC01CB0188199909AA09BB09883E934010
:1004F000A105B10558F021E0C21AD108E108F108C0
:1005000088EE880E83E0981EA11CB11CC114D10492
:10051000E104F10419F7FF90EF90DF90CF90BF90C6
:10052000AF909F908F9008950E941D070F931F9387
:10053000CF93DF93EC0188819981009729F02A817C
:100540003B812617370788F48B016F5F7F4F0E942E
:100550005306009761F0998388831B830A832C815B
:100560003D81232B11F4FC01108281E001C080E069
:10057000DF91CF911F910F910895EF92FF920F930A
:100580001F93CF93DF93EC017B018A01BA010E9494
:1005900096022881398181110DC02115310519F08C
:1005A000C9010E94BB05198218821D821C821B8210
:1005B0001A8206C01D830C83B701C9010E942B0754
:1005C000CE01DF91CF911F910F91FF90EF90089591
:1005D000AF92BF92CF92DF92FF920F931F93CF9370
:1005E000DF9300D0CDB7DEB7FF24F39402E310E031
:1005F0008EE291E00E94DE00892B09F4ACC08EE20D
:1006000091E00E94BC00C090CF01D090D0018A3010
:1006100009F080C0CD2831F0E091CB01F091CC0100
:10062000309721F410921E01EEE1F1E0E0818E2F6F
:10063000EE0F990BAA0BBB0BFC01E156F109E93057
:10064000F10508F05EC0EC5CFF4F0C942005809132
:100650002401882309F455C081E2A82E81E0B82E38
:1006600096E0C92E91E0D92EF50181915F01882392
:1006700029F060911F017091200102C060E070E0DC
:10068000F60180810E94CA010E945D02F2E0CF0E55
:10069000D11C8CE0C81681E0D80631F732C0109228
:1006A0002101F0922201109223012BC0F09221012E
:1006B0001092220104C0F0922101F0922201F092E6
:1006C00023011FC01092200110921F0160E070E012
:1006D00083E00E94CA0160E070E085E00E94CA01E8
:1006E00060E070E08BE00E94CA010E945D0209C0D8
:1006F000F09224011093200100931F0102C0109278
:10070000240140E050E06CE171E08BEC91E00E944C
:10071000BD026ECF89831A82EFEFCE1ADE0AB601D0
:100720008BEC91E00E949602882309F461CF20911E
:10073000CB013091CC018091CF019091D001BE01CD
:100740006F5F7F4F820F931F0E942B07D092D001C3
:10075000C092CF014DCF0F900F90DF91CF911F919D
:100760000F91FF90DF90CF90BF90AF9008950E94BF
:10077000EA0081110C94E80208951F920F920FB6BF
:100780000F9211242F933F934F935F936F937F9317
:100790008F939F93AF93BF93EF93FF938EE291E07C
:1007A0000E94F400FF91EF91BF91AF919F918F91C3
:1007B0007F916F915F914F913F912F910F900FBE5D
:1007C0000F901F9018951F920F920FB60F92112441
:1007D0002F938F939F93EF93FF93E0913E01F091BE
:1007E0003F018081E0914401F091450182FD12C0FA
:1007F0009081809147018F5F8F732091480182170C
:1008000051F0E0914701F0E0E25DFE4F958F80935B
:10081000470101C08081FF91EF919F918F912F91AE
:100820000F900FBE0F901F9018951F920F920FB64A
:100830000F9211242F933F938F939F93AF93BF9366
:100840008091260190912701A0912801B091290162
:100850003091250123E0230F2D3720F40196A11DAF
:10086000B11D05C026E8230F0296A11DB11D2093DE
:1008700025018093260190932701A0932801B0932E
:10088000290180912A0190912B01A0912C01B09116
:100890002D010196A11DB11D80932A0190932B017A
:1008A000A0932C01B0932D01BF91AF919F918F9197
:1008B0003F912F910F900FBE0F901F901895EEE271
:1008C000F1E01382128288EE93E0A0E0B0E084832E
:1008D0009583A683B78380E191E09183808385EC43
:1008E00090E09587848784EC90E09787868780ECFA
:1008F00090E0918B808B81EC90E0938B828B82ECEB
:1009000090E0958B848B86EC90E0978B868B118E94
:10091000128E138E148EEBECF1E011821082138292
:1009200012821582148240E050E06CE171E0CF0148
:100930000C94BD02789484B5826084BD84B58160D6
:1009400084BD85B5826085BD85B5816085BD80919A
:100950006E00816080936E00109281008091810012
:10096000826080938100809181008160809381000A
:10097000809180008160809380008091B1008460CC
:100980008093B1008091B00081608093B00080912D
:100990007A00846080937A0080917A0082608093EC
:1009A0007A0080917A00816080937A0080917A0049
:1009B000806880937A001092C100E0913E01F0912E
:1009C0003F0182E08083E0913E01F0913F0110827F
:1009D000E0913A01F0913B011082E0913C01F091ED
:1009E0003D0180E1808310924601E0914201F09147
:1009F000430186E08083E0914001F09141018081D4
:100A000080618083E0914001F091410180818860A4
:100A10008083E0914001F091410180818068808372
:100A2000E0914001F091410180818F7D80830E949F
:100A3000B703FDCF8091CB019091CC010C94BB0505
:100A4000EE0FFF1F0590F491E02D0994CF93DF93F3
:100A50008230910510F482E090E0E091D301F091B2
:100A6000D40120E030E0C0E0D0E0309711F14081C7
:100A7000518148175907C0F04817590761F482811E
:100A80009381209719F09B838A832BC09093D40184
:100A90008093D30126C02115310519F04217530761
:100AA00018F49A01BE01DF01EF010280F381E02D0D
:100AB000DCCF2115310509F1281B390B2430310514
:100AC00090F412968D919C9113976115710521F008
:100AD000FB019383828304C09093D4018093D3015C
:100AE000FD01329644C0FD01E20FF31F8193919303
:100AF000225031092D933C933AC02091D10130917D
:100B0000D201232B41F42091020130910301309353
:100B1000D2012093D10120910001309101012115D2
:100B2000310541F42DB73EB74091040150910501C4
:100B3000241B350BE091D101F091D201E217F307AC
:100B4000A0F42E1B3F0B2817390778F0AC014E5F3D
:100B50005F4F2417350748F04E0F5F1F5093D201A7
:100B60004093D1018193919302C0E0E0F0E0CF0186
:100B7000DF91CF9108950F931F93CF93DF93009749
:100B800009F48CC0FC013297138212820091D301C8
:100B90001091D4010115110581F420813181820F5A
:100BA000931F2091D1013091D2012817390779F58F
:100BB000F093D201E093D10171C0D80140E050E040
:100BC000AE17BF0750F412962D913C911397AD01CB
:100BD0002115310509F1D901F3CF9D01DA013383E4
:100BE000228360817181860F971F8217930769F4B2
:100BF000EC0128813981260F371F2E5F3F4F31834B
:100C000020838A819B8193838283452B29F4F093EF
:100C1000D401E093D30142C01396FC93EE93129754
:100C2000ED01499159919E01240F351FE217F307F9
:100C300071F480819181840F951F029611969C9387
:100C40008E938281938113969C938E931297E0E00A
:100C5000F0E0D80112968D919C911397009719F0AE
:100C6000F8018C01F6CF8D919C9198012E5F3F4F3A
:100C7000820F931F2091D1013091D201281739079B
:100C800069F4309729F41092D4011092D30102C074
:100C9000138212821093D2010093D101DF91CF9180
:100CA0001F910F910895A0E0B0E0E9E5F6E00C9403
:100CB0003607EC01009721F4CB010E942605B8C04D
:100CC000FC01E60FF71F9C0122503109E217F307E0
:100CD00008F4ACC0D9010D911C91119706171707A4
:100CE000B0F00530110508F49FC0C80104978617BD
:100CF000970708F499C002501109061B170B0193BE
:100D000011936D937C93CF010E94BB058DC05B0155
:100D1000A01AB10A4C01800E911EA091D301B0918E
:100D2000D40140E050E0E12CF12C109709F44AC0C6
:100D3000A815B905D1F56D907C901197630182E0FB
:100D4000C80ED11CCA14DB0480F1A3014A195B0947
:100D50006A0182E0C80ED11C1296BC9012971396BD
:100D6000AC91B5E0CB16D10440F0B282A38351839D
:100D70004083D9016D937C930AC00E5F1F4FC3015E
:100D8000800F911FF90191838083EB2DFA2FE114DD
:100D9000F10431F0D7011396FC93EE93129744C0FF
:100DA000F093D401E093D3013FC08D919C911197B2
:100DB0004817590708F4AC017D0112960D90BC91BB
:100DC000A02DB3CF8091D1019091D20188159905C2
:100DD000E1F446175707C8F4809100019091010192
:100DE000009741F48DB79EB74091040150910501E1
:100DF000841B950BE817F907C8F4F093D201E09330
:100E0000D101F901718360830FC0CB010E942605D7
:100E10007C01009759F0A801BE010E942207CE0173
:100E20000E94BB05C70104C0CE0102C080E090E073
:100E3000CDB7DEB7EEE00C94520781E090E0F89475
:100E40000C946907FB01DC0102C001900D92415036
:100E50005040D8F70895FB01DC0101900D9200206D
:100E6000E1F708952F923F924F925F926F927F9297
:100E70008F929F92AF92BF92CF92DF92EF92FF92AA
:100E80000F931F93CF93DF93CDB7DEB7CA1BDB0B56
:100E90000FB6F894DEBF0FBECDBF09942A883988FB
:100EA00048885F846E847D848C849B84AA84B98402
:100EB000C884DF80EE80FD800C811B81AA81B9810E
:100EC000CE0FD11D0FB6F894DEBF0FBECDBFED0122
:100ED000089510E0C6E6D0E004C0FE010E9420059F
:0C0EE0002196C736D107C9F7F894FFCF60
:100EEC000000D5018000030005000B00000000008D
:0E0EFC0015019100DE00BC00D0005C0100007A
:00000001FF
