:100000000C945E000C9486000C9486000C94860080
:100010000C9486000C9486000C9486000C94860048
:100020000C9486000C9486000C9486000C94860038
:100030000C9486000C9486000C9486000C94860028
:100040000C949A040C9486000C9468040C9442045A
:100050000C9486000C9486000C9486000C94860008
:100060000C9486000C948600000000080002010039
:100070000003040700000000000000000000000072
:10008000250028002B0000000000240027002A0083
:10009000040404040404040402020202020203032E
:1000A0000303030301020408102040800102040836
:1000B0001020010204081020E404A20511241FBE30
:1000C000CFEFD8E0DEBFCDBF11E0A0E0B1E0ECE8BB
:1000D000F0E102C005900D92AC32B107D9F721E0F2
:1000E000ACE2B1E001C01D92A03EB207E1F710E022
:1000F000CDE5D0E004C02197FE010E94CA05CC35B1
:10010000D107C9F70E941F050C9439080C94000010
:1001100090E0FC01EC55FF4F2491FC01E057FF4FAC
:100120008491882399F090E0880F991FFC01EA5789
:10013000FF4FA591B491FC01E458FF4F8591949134
:100140008FB7F894EC91E22BEC938FBF0895CF9288
:10015000DF92EF92FF920F931F93CF93DF936C0187
:100160007A018B01C0E0D0E0CE15DF0589F0D8011F
:100170006D918D01D601ED91FC910190F081E02D02
:10018000C6010995892B11F47E0102C02196ECCF9E
:10019000C701DF91CF911F910F91FF90EF90DF90FA
:1001A000CF900895FC01918D828D981761F0828D1A
:1001B000DF01A80FB11D5D968C91928D9F5F9F739B
:1001C000928F90E008958FEF9FEF0895FC01918D3D
:1001D000828D981731F0828DE80FF11D858D90E0AA
:1001E00008958FEF9FEF0895FC01918D228D892F47
:1001F00090E0805C9F4F821B91098F73992708952F
:1002000089E391E00E94F40021E0892B09F420E0C9
:10021000822F0895FC01848DDF01A80FB11DA35A20
:10022000BF4F2C91848D90E001968F739927848F16
:10023000A689B7892C93A089B1898C9180648C930D
:10024000938D848D981306C00288F389E02D8081F8
:100250008F7D80830895EF92FF920F931F93CF932A
:10026000DF93EC0181E0888F9B8D8C8D981305C006
:10027000E889F989808185FD24C0F62E0B8D10E078
:100280000F5F1F4F0F731127E02E8C8DE8120CC0EB
:100290000FB607FCFACFE889F989808185FFF5CF91
:1002A000CE010E940A01F1CF8B8DFE01E80FF11DF6
:1002B000E35AFF4FF0820B8FEA89FB8980818062CD
:1002C00007C0EE89FF896083E889F98980818064AD
:1002D000808381E090E0DF91CF911F910F91FF909B
:1002E000EF900895CF93DF93EC01888D8823C9F0B8
:1002F000EA89FB89808185FD05C0A889B9898C912F
:1003000086FD0FC00FB607FCF5CF808185FFF2CFC9
:10031000A889B9898C9185FFEDCFCE010E940A0191
:10032000E7CFDF91CF91089590E0FC01E859FF4FAE
:100330003491FC01EC55FF4F2491FC01E057FF4F35
:10034000E491EE2309F43BC0332339F1333091F0CB
:1003500038F43130A9F0323001F584B58F7D12C008
:10036000373091F03830A1F03430B9F4809180000A
:100370008F7D03C0809180008F77809380000DC0B7
:1003800084B58F7784BD09C08091B0008F7703C09A
:100390008091B0008F7D8093B000F0E0EE0FFF1FE2
:1003A000E458FF4FA591B4918FB7F894EC91611187
:1003B00003C020952E2301C02E2B2C938FBF0895B0
:1003C0003FB7F8948091350190913601A0913701A3
:1003D000B091380126B5A89B05C02F3F19F00196B2
:1003E000A11DB11D3FBFBA2FA92F982F8827820FBB
:1003F000911DA11DB11DBC01CD0142E0660F771F0B
:10040000881F991F4A95D1F708958F929F92AF92B6
:10041000BF92CF92DF92EF92FF926B017C010E941C
:10042000E0014B015C01C114D104E104F104F1F0DD
:100430000E94E001DC01CB0188199909AA09BB09D6
:10044000883E9340A105B10570F321E0C21AD1089E
:10045000E108F10888EE880E83E0981EA11CB11C0B
:10046000C114D104E104F10419F7DDCFFF90EF903E
:10047000DF90CF90BF90AF909F908F90089500979E
:1004800069F0FC0101900020E9F73197AF01481BAA
:10049000590BBC0189E391E00C94A70080E090E047
:1004A00008950E94C7070F931F93CF93DF93EC012A
:1004B00088819981009729F02A813B812617370787
:1004C00088F48B016F5F7F4F0E94FD06009761F0FB
:1004D000998388831B830A832C813D81232B11F40C
:1004E000FC01108281E001C080E0DF91CF911F917B
:1004F0000F910895EF92FF920F931F93CF93DF9385
:10050000EC017B018A01BA010E94530228813981E2
:1005100081110DC02115310519F0C9010E94650630
:10052000198218821D821C821B821A8206C01D83BA
:100530000C83B701C9010E94D507CE01DF91CF918D
:100540001F910F91FF90EF9008952F923F924F923D
:100550005F926F927F928F929F92AF92BF92CF9253
:10056000DF92EF92FF920F931F93CF93DF93CDB75C
:10057000DEB7A1970FB6F894DEBF0FBECDBF8DB624
:100580009EB68AE0C82ED12CE12CF12C9BE6692E78
:1005900090E0792E89E391E00E94F400892B09F420
:1005A0004DC189E391E00E94D2006091DA0170911F
:1005B000DB018A3009F021C16115710531F0E0914C
:1005C000D601F091D701309721F410922C01ECE282
:1005D000F1E08081833699F064F4813609F400C13A
:1005E000823609F001C181E080932D0186E191E01E
:1005F0000AC08436A9F08A3709F4F2C0F5C0109217
:100600002D0182E291E00E943F028FE191E00E9481
:100610003F026AE070E080E090E00E940502E4C0E2
:1006200080912D01882309F4DFC0ADB6BEB68DB729
:100630009EB7861B970B0FB6F8949EBF0FBE8DBF5B
:1006400001962091D6013091D701FC0140E050E0A5
:100650002B01A1E04A1A51084415550588F44F5F53
:100660005F4F4617570748F42115310531F08901CE
:10067000040F151FD8011C9101C010E01193ECCF9D
:100680000E94DC0790932F0180932E011C01990F8B
:100690004408550857FE26C0E0913901F0913A010F
:1006A0000190F081E02D6DE289E391E00995222728
:1006B0003327A901221933094409550919A28E01CA
:1006C0000F5D1F4FCA01B901A70196010E94A8053D
:1006D000605DF80162938F012115310541055105D7
:1006E00089F715C0A201910119A28E010F5D1F4F5C
:1006F000CA01B901A70196010E94A805605DD80151
:100700006E938D01211531054105510589F7C80109
:100710000E943F028FE191E00E943F0200912E0172
:1007200010912F0183E00E9488000115110511F43A
:1007300060E004C00F3F110529F461E083E00E94EE
:10074000940142C0F30184918330F9F048F4813080
:10075000B9F08230A1F584B5806284BD08BD34C093
:100760008730E9F0883019F1843049F580918000B4
:1007700080628093800010938B0000938A0024C0D5
:1007800084B5806884BD07BD1FC0809180008068EB
:1007900080938000109389000093880015C0809199
:1007A000B00080688093B0000093B3000DC08091CA
:1007B000B00080628093B0000093B40005C00038A0
:1007C00011050CF0BACFB4CF64E170E080E090E0A6
:1007D0000E9405020FB6F894BEBE0FBEADBE04C0A7
:1007E00010922F0110922E0140E050E061E271E082
:1007F00086ED91E00E947A02CDCE89831A828B0128
:100800000F5F1F4FB80186ED91E00E9453028823CD
:1008100009F4C0CE2091D6013091D7018091DA0140
:100820009091DB01BE016F5F7F4F820F931F0E948B
:10083000D5071093DB010093DA01ACCE0FB6F89424
:100840009EBE0FBE8DBEA1960FB6F894DEBF0FBE42
:10085000CDBFDF91CF911F910F91FF90EF90DF906F
:10086000CF90BF90AF909F908F907F906F905F9050
:100870004F903F902F9008950E94000181110C9499
:10088000A50208951F920F920FB60F9211242F9375
:100890003F934F935F936F937F938F939F93AF9308
:1008A000BF93EF93FF9389E391E00E940A01FF91C8
:1008B000EF91BF91AF919F918F917F916F915F91D8
:1008C0004F913F912F910F900FBE0F901F90189551
:1008D0001F920F920FB60F9211242F938F939F9315
:1008E000EF93FF93E0914901F0914A018081E091FB
:1008F0004F01F091500182FD12C090818091520110
:100900008F5F8F7320915301821751F0E091520154
:10091000F0E0E75CFE4F958F8093520101C080812B
:10092000FF91EF919F918F912F910F900FBE0F909C
:100930001F9018951F920F920FB60F9211242F93AC
:100940003F938F939F93AF93BF9380913101909189
:100950003201A0913301B09134013091300123E094
:10096000230F2D3720F40196A11DB11D05C026E8E7
:10097000230F0296A11DB11D2093300180933101F8
:1009800090933201A0933301B093340180913501EB
:1009900090913601A0913701B09138010196A11DC7
:1009A000B11D8093350190933601A0933701B09328
:1009B0003801BF91AF919F918F913F912F910F90EF
:1009C0000FBE0F901F901895E9E3F1E01382128299
:1009D00088EE93E0A0E0B0E084839583A683B7839C
:1009E0008AE091E09183808385EC90E0958784870D
:1009F00084EC90E09787868780EC90E0918B808BE9
:100A000081EC90E0938B828B82EC90E0958B848BD1
:100A100086EC90E0978B868B118E128E138E148E3F
:100A2000E6EDF1E0118210821382128215821482A7
:100A300040E050E061E271E0CF010C947A027894DA
:100A400084B5826084BD84B5816084BD85B58260D3
:100A500085BD85B5816085BD80916E008160809384
:100A60006E001092810080918100826080938100ED
:100A700080918100816080938100809180008160FD
:100A8000809380008091B10084608093B100809158
:100A9000B00081608093B00080917A008460809380
:100AA0007A0080917A00826080937A0080917A0047
:100AB000816080937A0080917A00806880937A00C8
:100AC0001092C100E0914901F0914A0182E08083D7
:100AD000E0914901F0914A011082E0914501F091C5
:100AE00046011082E0914701F091480180E1808346
:100AF00010925101E0914D01F0914E0186E080830A
:100B0000E0914B01F0914C01808180618083E09104
:100B10004B01F0914C01808188608083E0914B0112
:100B2000F0914C01808180688083E0914B01F091CD
:100B30004C0180818F7D808385E00E9488000E9427
:100B40003C04FDCF8091D6019091D7010C946506AD
:100B5000A1E21A2EAA1BBB1BFD010DC0AA1FBB1FC1
:100B6000EE1FFF1FA217B307E407F50720F0A21B33
:100B7000B30BE40BF50B661F771F881F991F1A94A0
:100B800069F760957095809590959B01AC01BD01CA
:100B9000CF010895EE0FFF1F0590F491E02D099409
:100BA000CF93DF938230910510F482E090E0E091E2
:100BB000DE01F091DF0120E030E0C0E0D0E03097CE
:100BC00011F14081518148175907C0F04817590762
:100BD00061F482819381209719F09B838A832BC0D3
:100BE0009093DF018093DE0126C02115310519F0B5
:100BF0004217530718F49A01BE01DF01EF0102808A
:100C0000F381E02DDCCF2115310509F1281B390BCB
:100C10002430310590F412968D919C9113976115B3
:100C2000710521F0FB019383828304C09093DF015F
:100C30008093DE01FD01329644C0FD01E20FF31FF7
:100C400081939193225031092D933C933AC0209186
:100C5000DC013091DD01232B41F420910201309120
:100C600003013093DD012093DC01209100013091DC
:100C700001012115310541F42DB73EB74091040122
:100C800050910501241B350BE091DC01F091DD0151
:100C9000E217F307A0F42E1B3F0B2817390778F053
:100CA000AC014E5F5F4F2417350748F04E0F5F1FB2
:100CB0005093DD014093DC018193919302C0E0E009
:100CC000F0E0CF01DF91CF9108950F931F93CF9361
:100CD000DF93009709F48CC0FC01329713821282D3
:100CE0000091DE011091DF010115110581F42081D1
:100CF0003181820F931F2091DC013091DD01281793
:100D0000390779F5F093DD01E093DC0171C0D8017A
:100D100040E050E0AE17BF0750F412962D913C9181
:100D20001397AD012115310509F1D901F3CF9D01CB
:100D3000DA013383228360817181860F971F8217C6
:100D4000930769F4EC0128813981260F371F2E5F44
:100D50003F4F318320838A819B8193838283452BFC
:100D600029F4F093DF01E093DE0142C01396FC9377
:100D7000EE931297ED01499159919E01240F351F71
:100D8000E217F30771F480819181840F951F029619
:100D900011969C938E938281938113969C938E934C
:100DA0001297E0E0F0E0D80112968D919C91139794
:100DB000009719F0F8018C01F6CF8D919C91980164
:100DC0002E5F3F4F820F931F2091DC013091DD0198
:100DD0002817390769F4309729F41092DF0110922F
:100DE000DE0102C0138212821093DD010093DC0148
:100DF000DF91CF911F910F910895A0E0B0E0E3E063
:100E0000F7E00C940608EC01009721F4CB010E9456
:100E1000D005B8C0FC01E60FF71F9C012250310934
:100E2000E217F30708F4ACC0D9010D911C9111979A
:100E300006171707B0F00530110508F49FC0C80168
:100E400004978617970708F499C002501109061BEA
:100E5000170B019311936D937C93CF010E9465064C
:100E60008DC05B01A01AB10A4C01800E911EA091A9
:100E7000DE01B091DF0140E050E0E12CF12C109751
:100E800009F44AC0A815B905D1F56D907C90119769
:100E9000630182E0C80ED11CCA14DB0480F1A301F7
:100EA0004A195B096A0182E0C80ED11C1296BC90F7
:100EB00012971396AC91B5E0CB16D10440F0B282F4
:100EC000A38351834083D9016D937C930AC00E5F45
:100ED0001F4FC301800F911FF90191838083EB2D78
:100EE000FA2FE114F10431F0D7011396FC93EE933D
:100EF000129744C0F093DF01E093DE013FC08D9173
:100F00009C9111974817590708F4AC017D0112967E
:100F10000D90BC91A02DB3CF8091DC019091DD01AB
:100F200088159905E1F446175707C8F48091000128
:100F300090910101009741F48DB79EB74091040153
:100F400050910501841B950BE817F907C8F4F0933D
:100F5000DD01E093DC01F901718360830FC0CB01F7
:100F60000E94D0057C01009759F0A801BE010E94A3
:100F7000CC07CE010E946506C70104C0CE0102C0A5
:100F800080E090E0CDB7DEB7EEE00C94220881E07F
:100F900090E0F8940C943908FB01DC0102C0019048
:100FA0000D9241505040D8F70895FB01DC010190AB
:100FB0000D920020E1F70895FC0188279927E89415
:100FC00021912032E9F3293010F02E30C8F32B3272
:100FD00041F02D3239F4689404C00E94FA07820F60
:100FE000911D219120532A30C0F31EF490958195D4
:100FF0009F4F08957AE0979F902D879F802D910DA8
:10100000112408952F923F924F925F926F927F9298
:101010008F929F92AF92BF92CF92DF92EF92FF9208
:101020000F931F93CF93DF93CDB7DEB7CA1BDB0BB4
:101030000FB6F894DEBF0FBECDBF09942A88398859
:1010400048885F846E847D848C849B84AA84B98460
:10105000C884DF80EE80FD800C811B81AA81B9816C
:10106000CE0FD11D0FB6F894DEBF0FBECDBFED0180
:10107000089510E0CDE5D0E004C0FE010E94CA054D
:0C1080002196CE35D107C9F7F894FFCFB8
:10108C000000E0018000000000002B01A700F4002C
:10109C00D200E6007201506F776572204F4E000D42
:0C10AC000A00506F776572204F46460026
:00000001FF
